{
  "_format": "hh-sol-artifact-1",
  "contractName": "Certification",
  "sourceName": "contracts/Certification.sol",
  "abi": [
    {
      "inputs": [
        {
          "internalType": "address",
          "name": "_sessionContractAddress",
          "type": "address"
        }
      ],
      "stateMutability": "nonpayable",
      "type": "constructor"
    },
    {
      "anonymous": false,
      "inputs": [
        {
          "indexed": true,
          "internalType": "address",
          "name": "owner",
          "type": "address"
        },
        {
          "indexed": true,
          "internalType": "address",
          "name": "approved",
          "type": "address"
        },
        {
          "indexed": true,
          "internalType": "uint256",
          "name": "tokenId",
          "type": "uint256"
        }
      ],
      "name": "Approval",
      "type": "event"
    },
    {
      "anonymous": false,
      "inputs": [
        {
          "indexed": true,
          "internalType": "address",
          "name": "owner",
          "type": "address"
        },
        {
          "indexed": true,
          "internalType": "address",
          "name": "operator",
          "type": "address"
        },
        {
          "indexed": false,
          "internalType": "bool",
          "name": "approved",
          "type": "bool"
        }
      ],
      "name": "ApprovalForAll",
      "type": "event"
    },
    {
      "anonymous": false,
      "inputs": [
        {
          "indexed": false,
          "internalType": "uint256",
          "name": "_fromTokenId",
          "type": "uint256"
        },
        {
          "indexed": false,
          "internalType": "uint256",
          "name": "_toTokenId",
          "type": "uint256"
        }
      ],
      "name": "BatchMetadataUpdate",
      "type": "event"
    },
    {
      "anonymous": false,
      "inputs": [
        {
          "indexed": false,
          "internalType": "uint256",
          "name": "_tokenId",
          "type": "uint256"
        }
      ],
      "name": "MetadataUpdate",
      "type": "event"
    },
    {
      "anonymous": false,
      "inputs": [
        {
          "indexed": true,
          "internalType": "address",
          "name": "previousOwner",
          "type": "address"
        },
        {
          "indexed": true,
          "internalType": "address",
          "name": "newOwner",
          "type": "address"
        }
      ],
      "name": "OwnershipTransferred",
      "type": "event"
    },
    {
      "anonymous": false,
      "inputs": [
        {
          "indexed": true,
          "internalType": "address",
          "name": "from",
          "type": "address"
        },
        {
          "indexed": true,
          "internalType": "address",
          "name": "to",
          "type": "address"
        },
        {
          "indexed": true,
          "internalType": "uint256",
          "name": "tokenId",
          "type": "uint256"
        }
      ],
      "name": "Transfer",
      "type": "event"
    },
    {
      "inputs": [
        {
          "internalType": "address",
          "name": "to",
          "type": "address"
        },
        {
          "internalType": "uint256",
          "name": "tokenId",
          "type": "uint256"
        }
      ],
      "name": "approve",
      "outputs": [],
      "stateMutability": "nonpayable",
      "type": "function"
    },
    {
      "inputs": [
        {
          "internalType": "address",
          "name": "owner",
          "type": "address"
        }
      ],
      "name": "balanceOf",
      "outputs": [
        {
          "internalType": "uint256",
          "name": "",
          "type": "uint256"
        }
      ],
      "stateMutability": "view",
      "type": "function"
    },
    {
      "inputs": [],
      "name": "getAllCertificatesOfPlayer",
      "outputs": [
        {
          "internalType": "string[]",
          "name": "",
          "type": "string[]"
        }
      ],
      "stateMutability": "view",
      "type": "function"
    },
    {
      "inputs": [],
      "name": "getAllDiplomasOfPlayer",
      "outputs": [
        {
          "internalType": "uint256[]",
          "name": "",
          "type": "uint256[]"
        }
      ],
      "stateMutability": "view",
      "type": "function"
    },
    {
      "inputs": [
        {
          "internalType": "uint256",
          "name": "tokenId",
          "type": "uint256"
        }
      ],
      "name": "getApproved",
      "outputs": [
        {
          "internalType": "address",
          "name": "",
          "type": "address"
        }
      ],
      "stateMutability": "view",
      "type": "function"
    },
    {
      "inputs": [
        {
          "internalType": "address",
          "name": "playerAddress",
          "type": "address"
        },
        {
          "internalType": "uint256",
          "name": "index",
          "type": "uint256"
        }
      ],
      "name": "getCertificateURI",
      "outputs": [
        {
          "internalType": "string",
          "name": "",
          "type": "string"
        }
      ],
      "stateMutability": "view",
      "type": "function"
    },
    {
      "inputs": [
        {
          "internalType": "uint256",
          "name": "diplomaId",
          "type": "uint256"
        }
      ],
      "name": "getDiploma",
      "outputs": [
        {
          "components": [
            {
              "internalType": "address",
              "name": "playerAddress",
              "type": "address"
            },
            {
              "internalType": "address",
              "name": "teamAddress",
              "type": "address"
            },
            {
              "internalType": "string",
              "name": "date",
              "type": "string"
            }
          ],
          "internalType": "struct Certification.Diploma",
          "name": "",
          "type": "tuple"
        }
      ],
      "stateMutability": "view",
      "type": "function"
    },
    {
      "inputs": [
        {
          "internalType": "address",
          "name": "owner",
          "type": "address"
        },
        {
          "internalType": "address",
          "name": "operator",
          "type": "address"
        }
      ],
      "name": "isApprovedForAll",
      "outputs": [
        {
          "internalType": "bool",
          "name": "",
          "type": "bool"
        }
      ],
      "stateMutability": "view",
      "type": "function"
    },
    {
      "inputs": [
        {
          "internalType": "address",
          "name": "playerAddress",
          "type": "address"
        },
        {
          "internalType": "address",
          "name": "teamAddress",
          "type": "address"
        },
        {
          "internalType": "string",
          "name": "date",
          "type": "string"
        }
      ],
      "name": "mintDiploma",
      "outputs": [
        {
          "internalType": "uint256",
          "name": "",
          "type": "uint256"
        }
      ],
      "stateMutability": "nonpayable",
      "type": "function"
    },
    {
      "inputs": [],
      "name": "name",
      "outputs": [
        {
          "internalType": "string",
          "name": "",
          "type": "string"
        }
      ],
      "stateMutability": "view",
      "type": "function"
    },
    {
      "inputs": [],
      "name": "owner",
      "outputs": [
        {
          "internalType": "address",
          "name": "",
          "type": "address"
        }
      ],
      "stateMutability": "view",
      "type": "function"
    },
    {
      "inputs": [
        {
          "internalType": "uint256",
          "name": "tokenId",
          "type": "uint256"
        }
      ],
      "name": "ownerOf",
      "outputs": [
        {
          "internalType": "address",
          "name": "",
          "type": "address"
        }
      ],
      "stateMutability": "view",
      "type": "function"
    },
    {
      "inputs": [],
      "name": "renounceOwnership",
      "outputs": [],
      "stateMutability": "nonpayable",
      "type": "function"
    },
    {
      "inputs": [
        {
          "internalType": "address",
          "name": "from",
          "type": "address"
        },
        {
          "internalType": "address",
          "name": "to",
          "type": "address"
        },
        {
          "internalType": "uint256",
          "name": "tokenId",
          "type": "uint256"
        }
      ],
      "name": "safeTransferFrom",
      "outputs": [],
      "stateMutability": "nonpayable",
      "type": "function"
    },
    {
      "inputs": [
        {
          "internalType": "address",
          "name": "from",
          "type": "address"
        },
        {
          "internalType": "address",
          "name": "to",
          "type": "address"
        },
        {
          "internalType": "uint256",
          "name": "tokenId",
          "type": "uint256"
        },
        {
          "internalType": "bytes",
          "name": "data",
          "type": "bytes"
        }
      ],
      "name": "safeTransferFrom",
      "outputs": [],
      "stateMutability": "nonpayable",
      "type": "function"
    },
    {
      "inputs": [],
      "name": "sessionContractAddress",
      "outputs": [
        {
          "internalType": "address",
          "name": "",
          "type": "address"
        }
      ],
      "stateMutability": "view",
      "type": "function"
    },
    {
      "inputs": [
        {
          "internalType": "address",
          "name": "operator",
          "type": "address"
        },
        {
          "internalType": "bool",
          "name": "approved",
          "type": "bool"
        }
      ],
      "name": "setApprovalForAll",
      "outputs": [],
      "stateMutability": "nonpayable",
      "type": "function"
    },
    {
      "inputs": [
        {
          "internalType": "bytes4",
          "name": "interfaceId",
          "type": "bytes4"
        }
      ],
      "name": "supportsInterface",
      "outputs": [
        {
          "internalType": "bool",
          "name": "",
          "type": "bool"
        }
      ],
      "stateMutability": "view",
      "type": "function"
    },
    {
      "inputs": [],
      "name": "symbol",
      "outputs": [
        {
          "internalType": "string",
          "name": "",
          "type": "string"
        }
      ],
      "stateMutability": "view",
      "type": "function"
    },
    {
      "inputs": [
        {
          "internalType": "uint256",
          "name": "index",
          "type": "uint256"
        }
      ],
      "name": "tokenByIndex",
      "outputs": [
        {
          "internalType": "uint256",
          "name": "",
          "type": "uint256"
        }
      ],
      "stateMutability": "view",
      "type": "function"
    },
    {
      "inputs": [
        {
          "internalType": "address",
          "name": "owner",
          "type": "address"
        },
        {
          "internalType": "uint256",
          "name": "index",
          "type": "uint256"
        }
      ],
      "name": "tokenOfOwnerByIndex",
      "outputs": [
        {
          "internalType": "uint256",
          "name": "",
          "type": "uint256"
        }
      ],
      "stateMutability": "view",
      "type": "function"
    },
    {
      "inputs": [
        {
          "internalType": "uint256",
          "name": "tokenId",
          "type": "uint256"
        }
      ],
      "name": "tokenURI",
      "outputs": [
        {
          "internalType": "string",
          "name": "",
          "type": "string"
        }
      ],
      "stateMutability": "view",
      "type": "function"
    },
    {
      "inputs": [],
      "name": "totalSupply",
      "outputs": [
        {
          "internalType": "uint256",
          "name": "",
          "type": "uint256"
        }
      ],
      "stateMutability": "view",
      "type": "function"
    },
    {
      "inputs": [
        {
          "internalType": "address",
          "name": "from",
          "type": "address"
        },
        {
          "internalType": "address",
          "name": "to",
          "type": "address"
        },
        {
          "internalType": "uint256",
          "name": "tokenId",
          "type": "uint256"
        }
      ],
      "name": "transferFrom",
      "outputs": [],
      "stateMutability": "nonpayable",
      "type": "function"
    },
    {
      "inputs": [
        {
          "internalType": "address",
          "name": "newOwner",
          "type": "address"
        }
      ],
      "name": "transferOwnership",
      "outputs": [],
      "stateMutability": "nonpayable",
      "type": "function"
    }
  ],
  "bytecode": "0x60806040523480156200001157600080fd5b5060405162002e1438038062002e14833981016040819052620000349162000129565b604051806040016040528060078152602001664469706c6f6d6160c81b8152506040518060400160405280600381526020016204449560ec1b815250816000908162000081919062000200565b50600162000090828262000200565b505050620000ad620000a7620000d360201b60201c565b620000d7565b600d80546001600160a01b0319166001600160a01b0392909216919091179055620002cc565b3390565b600780546001600160a01b038381166001600160a01b0319831681179093556040519116919082907f8be0079c531659141344cd1fd0a4f28419497f9722a3daafe3b4186f6b6457e090600090a35050565b6000602082840312156200013c57600080fd5b81516001600160a01b03811681146200015457600080fd5b9392505050565b634e487b7160e01b600052604160045260246000fd5b600181811c908216806200018657607f821691505b602082108103620001a757634e487b7160e01b600052602260045260246000fd5b50919050565b601f821115620001fb57600081815260208120601f850160051c81016020861015620001d65750805b601f850160051c820191505b81811015620001f757828155600101620001e2565b5050505b505050565b81516001600160401b038111156200021c576200021c6200015b565b62000234816200022d845462000171565b84620001ad565b602080601f8311600181146200026c5760008415620002535750858301515b600019600386901b1c1916600185901b178555620001f7565b600085815260208120601f198616915b828110156200029d578886015182559484019460019091019084016200027c565b5085821015620002bc5787850151600019600388901b60f8161c191681555b5050505050600190811b01905550565b612b3880620002dc6000396000f3fe608060405234801561001057600080fd5b50600436106101735760003560e01c80636352211e116100de578063a22cb46511610097578063c4e343fc11610071578063c4e343fc1461032e578063c87b56dd14610343578063e985e9c514610356578063f2fde38b1461039257600080fd5b8063a22cb465146102e8578063b1152847146102fb578063b88d4fde1461031b57600080fd5b80636352211e1461028c57806370a082311461029f578063715018a6146102b25780637f515039146102ba5780638da5cb5b146102cf57806395d89b41146102e057600080fd5b806323b872dd1161013057806323b872dd1461021a578063242159311461022d5780632f745c591461024057806342842e0e146102535780634f6ccce714610266578063567d27761461027957600080fd5b806301ffc9a714610178578063023c57a1146101a057806306fdde03146101cb578063081812fc146101e0578063095ea7b3146101f357806318160ddd14610208575b600080fd5b61018b610186366004611b79565b6103a5565b60405190151581526020015b60405180910390f35b600d546101b3906001600160a01b031681565b6040516001600160a01b039091168152602001610197565b6101d36103b6565b6040516101979190611bed565b6101b36101ee366004611c00565b610448565b610206610201366004611c35565b61046f565b005b600a545b604051908152602001610197565b610206610228366004611c5f565b610589565b6101d361023b366004611c35565b6105ba565b61020c61024e366004611c35565b6105db565b610206610261366004611c5f565b610671565b61020c610274366004611c00565b61068c565b61020c610287366004611d27565b61071f565b6101b361029a366004611c00565b610826565b61020c6102ad366004611d99565b610886565b61020661090c565b6102c2610920565b6040516101979190611db4565b6007546001600160a01b03166101b3565b6101d36109f4565b6102066102f6366004611e16565b610a03565b61030e610309366004611c00565b610a12565b6040516101979190611e52565b610206610329366004611e8d565b610aff565b610336610b37565b6040516101979190611f09565b6101d3610351366004611c00565b610bf9565b61018b610364366004611f4d565b6001600160a01b03918216600090815260056020908152604080832093909416825291909152205460ff1690565b6102066103a0366004611d99565b610d72565b60006103b082610deb565b92915050565b6060600080546103c590611f80565b80601f01602080910402602001604051908101604052809291908181526020018280546103f190611f80565b801561043e5780601f106104135761010080835404028352916020019161043e565b820191906000526020600020905b81548152906001019060200180831161042157829003601f168201915b5050505050905090565b600061045382610e10565b506000908152600460205260409020546001600160a01b031690565b600061047a82610826565b9050806001600160a01b0316836001600160a01b0316036104ec5760405162461bcd60e51b815260206004820152602160248201527f4552433732313a20617070726f76616c20746f2063757272656e74206f776e656044820152603960f91b60648201526084015b60405180910390fd5b336001600160a01b038216148061050857506105088133610364565b61057a5760405162461bcd60e51b815260206004820152603d60248201527f4552433732313a20617070726f76652063616c6c6572206973206e6f7420746f60448201527f6b656e206f776e6572206f7220617070726f76656420666f7220616c6c00000060648201526084016104e3565b6105848383610e6f565b505050565b6105933382610edd565b6105af5760405162461bcd60e51b81526004016104e390611fba565b610584838383610f5b565b606060006105c884846105db565b90506105d381610bf9565b949350505050565b60006105e683610886565b82106106485760405162461bcd60e51b815260206004820152602b60248201527f455243373231456e756d657261626c653a206f776e657220696e646578206f7560448201526a74206f6620626f756e647360a81b60648201526084016104e3565b506001600160a01b03919091166000908152600860209081526040808320938352929052205490565b61058483838360405180602001604052806000815250610aff565b6000610697600a5490565b82106106fa5760405162461bcd60e51b815260206004820152602c60248201527f455243373231456e756d657261626c653a20676c6f62616c20696e646578206f60448201526b7574206f6620626f756e647360a01b60648201526084016104e3565b600a828154811061070d5761070d612007565b90600052602060002001549050919050565b600d546000906001600160a01b031633146107875760405162461bcd60e51b815260206004820152602260248201527f4f6e6c79207468652053657373696f6e20636f6e74726163742063616e206d696044820152611b9d60f21b60648201526084016104e3565b6000610792600c5490565b905061079e85826110cc565b604080516060810182526001600160a01b03808816825286811660208084019182528385018881526000878152600e909252949020835181549084166001600160a01b031991821617825591516001820180549190941692169190911790915591519091906002820190610812908261206b565b5050600c8054600101905550949350505050565b6000818152600260205260408120546001600160a01b0316806103b05760405162461bcd60e51b8152602060048201526018602482015277115490cdcc8c4e881a5b9d985b1a59081d1bdad95b88125160421b60448201526064016104e3565b60006001600160a01b0382166108f05760405162461bcd60e51b815260206004820152602960248201527f4552433732313a2061646472657373207a65726f206973206e6f7420612076616044820152683634b21037bbb732b960b91b60648201526084016104e3565b506001600160a01b031660009081526003602052604090205490565b6109146110e6565b61091e6000611140565b565b6060600061092d33610886565b1161094a5760405162461bcd60e51b81526004016104e39061212b565b600061095533610886565b905060008167ffffffffffffffff81111561097257610972611c9b565b6040519080825280602002602001820160405280156109a557816020015b60608152602001906001900390816109905790505b50905060005b828110156109ed576109bd33826105ba565b8282815181106109cf576109cf612007565b602002602001018190525080806109e590612186565b9150506109ab565b5092915050565b6060600180546103c590611f80565b610a0e338383611192565b5050565b604080516060808201835260008083526020808401829052838501839052858252600e8152908490208451928301855280546001600160a01b03908116845260018201541691830191909152600281018054939492939192840191610a7690611f80565b80601f0160208091040260200160405190810160405280929190818152602001828054610aa290611f80565b8015610aef5780601f10610ac457610100808354040283529160200191610aef565b820191906000526020600020905b815481529060010190602001808311610ad257829003601f168201915b5050505050815250509050919050565b610b093383610edd565b610b255760405162461bcd60e51b81526004016104e390611fba565b610b3184848484611260565b50505050565b60606000610b4433610886565b11610b615760405162461bcd60e51b81526004016104e39061212b565b6000610b6c33610886565b905060008167ffffffffffffffff811115610b8957610b89611c9b565b604051908082528060200260200182016040528015610bb2578160200160208202803683370190505b50905060005b828110156109ed57610bca33826105db565b828281518110610bdc57610bdc612007565b602090810291909101015280610bf181612186565b915050610bb8565b6000818152600e6020908152604080832081516060818101845282546001600160a01b039081168352600184015416948201949094526002820180549495949193840191610c4690611f80565b80601f0160208091040260200160405190810160405280929190818152602001828054610c7290611f80565b8015610cbf5780601f10610c9457610100808354040283529160200191610cbf565b820191906000526020600020905b815481529060010190602001808311610ca257829003601f168201915b50505050508152505090506000816000015182602001518360400151604051602001610ced939291906121bb565b60405160208183030381529060405290506000610d0982611293565b90506000610d16866113e6565b82604051602001610d28929190612811565b60405160208183030381529060405290506000610d4482611293565b905080604051602001610d579190612901565b60405160208183030381529060405295505050505050919050565b610d7a6110e6565b6001600160a01b038116610ddf5760405162461bcd60e51b815260206004820152602660248201527f4f776e61626c653a206e6577206f776e657220697320746865207a65726f206160448201526564647265737360d01b60648201526084016104e3565b610de881611140565b50565b60006001600160e01b0319821663780e9d6360e01b14806103b057506103b082611479565b6000818152600260205260409020546001600160a01b0316610de85760405162461bcd60e51b8152602060048201526018602482015277115490cdcc8c4e881a5b9d985b1a59081d1bdad95b88125160421b60448201526064016104e3565b600081815260046020526040902080546001600160a01b0319166001600160a01b0384169081179091558190610ea482610826565b6001600160a01b03167f8c5be1e5ebec7d5bd14f71427d1e84f3dd0314c0f7b2291e5b200ac8c7c3b92560405160405180910390a45050565b600080610ee983610826565b9050806001600160a01b0316846001600160a01b03161480610f3057506001600160a01b0380821660009081526005602090815260408083209388168352929052205460ff165b806105d35750836001600160a01b0316610f4984610448565b6001600160a01b031614949350505050565b826001600160a01b0316610f6e82610826565b6001600160a01b031614610f945760405162461bcd60e51b81526004016104e390612946565b6001600160a01b038216610ff65760405162461bcd60e51b8152602060048201526024808201527f4552433732313a207472616e7366657220746f20746865207a65726f206164646044820152637265737360e01b60648201526084016104e3565b611003838383600161149e565b826001600160a01b031661101682610826565b6001600160a01b03161461103c5760405162461bcd60e51b81526004016104e390612946565b600081815260046020908152604080832080546001600160a01b03199081169091556001600160a01b0387811680865260038552838620805460001901905590871680865283862080546001019055868652600290945282852080549092168417909155905184937fddf252ad1be2c89b69c2b068fc378daa952ba7f163c4a11628f55a4df523b3ef91a4505050565b610a0e8282604051806020016040528060008152506114aa565b6007546001600160a01b0316331461091e5760405162461bcd60e51b815260206004820181905260248201527f4f776e61626c653a2063616c6c6572206973206e6f7420746865206f776e657260448201526064016104e3565b600780546001600160a01b038381166001600160a01b0319831681179093556040519116919082907f8be0079c531659141344cd1fd0a4f28419497f9722a3daafe3b4186f6b6457e090600090a35050565b816001600160a01b0316836001600160a01b0316036111f35760405162461bcd60e51b815260206004820152601960248201527f4552433732313a20617070726f766520746f2063616c6c65720000000000000060448201526064016104e3565b6001600160a01b03838116600081815260056020908152604080832094871680845294825291829020805460ff191686151590811790915591519182527f17307eab39ab6107e8899845ad3d59bd9653f200f220920489ca2b5937696c31910160405180910390a3505050565b61126b848484610f5b565b611277848484846114dd565b610b315760405162461bcd60e51b81526004016104e39061298b565b606081516000036112b257505060408051602081019091526000815290565b6000604051806060016040528060408152602001612aa360409139905060006003845160026112e191906129dd565b6112eb91906129f0565b6112f6906004612a12565b67ffffffffffffffff81111561130e5761130e611c9b565b6040519080825280601f01601f191660200182016040528015611338576020820181803683370190505b509050600182016020820185865187015b808210156113a4576003820191508151603f8160121c168501518453600184019350603f81600c1c168501518453600184019350603f8160061c168501518453600184019350603f8116850151845350600183019250611349565b50506003865106600181146113c057600281146113d3576113db565b603d6001830353603d60028303536113db565b603d60018303535b509195945050505050565b606060006113f3836115de565b600101905060008167ffffffffffffffff81111561141357611413611c9b565b6040519080825280601f01601f19166020018201604052801561143d576020820181803683370190505b5090508181016020015b600019016f181899199a1a9b1b9c1cb0b131b232b360811b600a86061a8153600a850494508461144757509392505050565b60006001600160e01b03198216632483248360e11b14806103b057506103b0826116b6565b610b3184848484611706565b6114b4838361183a565b6114c160008484846114dd565b6105845760405162461bcd60e51b81526004016104e39061298b565b60006001600160a01b0384163b156115d357604051630a85bd0160e11b81526001600160a01b0385169063150b7a0290611521903390899088908890600401612a29565b6020604051808303816000875af192505050801561155c575060408051601f3d908101601f1916820190925261155991810190612a5c565b60015b6115b9573d80801561158a576040519150601f19603f3d011682016040523d82523d6000602084013e61158f565b606091505b5080516000036115b15760405162461bcd60e51b81526004016104e39061298b565b805181602001fd5b6001600160e01b031916630a85bd0160e11b1490506105d3565b506001949350505050565b60008072184f03e93ff9f4daa797ed6e38ed64bf6a1f0160401b831061161d5772184f03e93ff9f4daa797ed6e38ed64bf6a1f0160401b830492506040015b6d04ee2d6d415b85acef81000000008310611649576d04ee2d6d415b85acef8100000000830492506020015b662386f26fc10000831061166757662386f26fc10000830492506010015b6305f5e100831061167f576305f5e100830492506008015b612710831061169357612710830492506004015b606483106116a5576064830492506002015b600a83106103b05760010192915050565b60006001600160e01b031982166380ac58cd60e01b14806116e757506001600160e01b03198216635b5e139f60e01b145b806103b057506301ffc9a760e01b6001600160e01b03198316146103b0565b60018111156117755760405162461bcd60e51b815260206004820152603560248201527f455243373231456e756d657261626c653a20636f6e7365637574697665207472604482015274185b9cd9995c9cc81b9bdd081cdd5c1c1bdc9d1959605a1b60648201526084016104e3565b816001600160a01b0385166117d1576117cc81600a80546000838152600b60205260408120829055600182018355919091527fc65a7bb8d6351c1cf70c95a316cc6a92839c986682d98bc35f958f4883f9d2a80155565b6117f4565b836001600160a01b0316856001600160a01b0316146117f4576117f485826119d3565b6001600160a01b0384166118105761180b81611a70565b611833565b846001600160a01b0316846001600160a01b031614611833576118338482611b1f565b5050505050565b6001600160a01b0382166118905760405162461bcd60e51b815260206004820181905260248201527f4552433732313a206d696e7420746f20746865207a65726f206164647265737360448201526064016104e3565b6000818152600260205260409020546001600160a01b0316156118f55760405162461bcd60e51b815260206004820152601c60248201527f4552433732313a20746f6b656e20616c7265616479206d696e7465640000000060448201526064016104e3565b61190360008383600161149e565b6000818152600260205260409020546001600160a01b0316156119685760405162461bcd60e51b815260206004820152601c60248201527f4552433732313a20746f6b656e20616c7265616479206d696e7465640000000060448201526064016104e3565b6001600160a01b038216600081815260036020908152604080832080546001019055848352600290915280822080546001600160a01b0319168417905551839291907fddf252ad1be2c89b69c2b068fc378daa952ba7f163c4a11628f55a4df523b3ef908290a45050565b600060016119e084610886565b6119ea9190612a79565b600083815260096020526040902054909150808214611a3d576001600160a01b03841660009081526008602090815260408083208584528252808320548484528184208190558352600990915290208190555b5060009182526009602090815260408084208490556001600160a01b039094168352600881528383209183525290812055565b600a54600090611a8290600190612a79565b6000838152600b6020526040812054600a8054939450909284908110611aaa57611aaa612007565b9060005260206000200154905080600a8381548110611acb57611acb612007565b6000918252602080832090910192909255828152600b9091526040808220849055858252812055600a805480611b0357611b03612a8c565b6001900381819060005260206000200160009055905550505050565b6000611b2a83610886565b6001600160a01b039093166000908152600860209081526040808320868452825280832085905593825260099052919091209190915550565b6001600160e01b031981168114610de857600080fd5b600060208284031215611b8b57600080fd5b8135611b9681611b63565b9392505050565b60005b83811015611bb8578181015183820152602001611ba0565b50506000910152565b60008151808452611bd9816020860160208601611b9d565b601f01601f19169290920160200192915050565b602081526000611b966020830184611bc1565b600060208284031215611c1257600080fd5b5035919050565b80356001600160a01b0381168114611c3057600080fd5b919050565b60008060408385031215611c4857600080fd5b611c5183611c19565b946020939093013593505050565b600080600060608486031215611c7457600080fd5b611c7d84611c19565b9250611c8b60208501611c19565b9150604084013590509250925092565b634e487b7160e01b600052604160045260246000fd5b600067ffffffffffffffff80841115611ccc57611ccc611c9b565b604051601f8501601f19908116603f01168101908282118183101715611cf457611cf4611c9b565b81604052809350858152868686011115611d0d57600080fd5b858560208301376000602087830101525050509392505050565b600080600060608486031215611d3c57600080fd5b611d4584611c19565b9250611d5360208501611c19565b9150604084013567ffffffffffffffff811115611d6f57600080fd5b8401601f81018613611d8057600080fd5b611d8f86823560208401611cb1565b9150509250925092565b600060208284031215611dab57600080fd5b611b9682611c19565b6000602080830181845280855180835260408601915060408160051b870101925083870160005b82811015611e0957603f19888603018452611df7858351611bc1565b94509285019290850190600101611ddb565b5092979650505050505050565b60008060408385031215611e2957600080fd5b611e3283611c19565b915060208301358015158114611e4757600080fd5b809150509250929050565b60208152600060018060a01b038084511660208401528060208501511660408401525060408301516060808401526105d36080840182611bc1565b60008060008060808587031215611ea357600080fd5b611eac85611c19565b9350611eba60208601611c19565b925060408501359150606085013567ffffffffffffffff811115611edd57600080fd5b8501601f81018713611eee57600080fd5b611efd87823560208401611cb1565b91505092959194509250565b6020808252825182820181905260009190848201906040850190845b81811015611f4157835183529284019291840191600101611f25565b50909695505050505050565b60008060408385031215611f6057600080fd5b611f6983611c19565b9150611f7760208401611c19565b90509250929050565b600181811c90821680611f9457607f821691505b602082108103611fb457634e487b7160e01b600052602260045260246000fd5b50919050565b6020808252602d908201527f4552433732313a2063616c6c6572206973206e6f7420746f6b656e206f776e6560408201526c1c881bdc88185c1c1c9bdd9959609a1b606082015260800190565b634e487b7160e01b600052603260045260246000fd5b601f82111561058457600081815260208120601f850160051c810160208610156120445750805b601f850160051c820191505b8181101561206357828155600101612050565b505050505050565b815167ffffffffffffffff81111561208557612085611c9b565b612099816120938454611f80565b8461201d565b602080601f8311600181146120ce57600084156120b65750858301515b600019600386901b1c1916600185901b178555612063565b600085815260208120601f198616915b828110156120fd578886015182559484019460019091019084016120de565b508582101561211b5787850151600019600388901b60f8161c191681555b5050505050600190811b01905550565b60208082526025908201527f506c6179657220646f6573206e6f74206861766520616e792063657274696669604082015264636174657360d81b606082015260800190565b634e487b7160e01b600052601160045260246000fd5b60006001820161219857612198612170565b5060010190565b600081516121b1818560208601611b9d565b9290920192915050565b7f3c73766720786d6c6e733d22687474703a2f2f7777772e77332e6f72672f323081527f30302f737667222077696474683d2238303022206865696768743d22363030226020820152601f60f91b60408201527f3c726563742077696474683d223130302522206865696768743d223130302522604182015271103334b6361e9111b333333333331110179f60711b60618201527f3c7265637420783d2235302220793d223530222077696474683d22373030222060738201527f6865696768743d22353030222066696c6c3d226e6f6e6522207374726f6b653d60938201527f222330303030303022207374726f6b652d77696474683d223622202f3e00000060b38201527f3c7465787420783d223430302220793d223132302220666f6e742d66616d696c60d08201527f793d22427275736820536372697074204d542c20637572736976652220666f6e60f08201527f742d73697a653d2236302220746578742d616e63686f723d226d6964646c65226101108201527f2066696c6c3d2223303030303030223e4469706c6f6d613c2f746578743e00006101308201527f3c6c696e652078313d22313030222079313d22313630222078323d223730302261014e8201527f2079323d2231363022207374726f6b653d222364346166333722207374726f6b61016e8201526d3296bbb4b23a341e911a1110179f60911b61018e82015260006124aa61249a61243761019c85017f3c6c696e652078313d22313030222079313d22313631222078323d223730302281527f2079323d2231363122207374726f6b653d222364346166333722207374726f6b60208201526d3296bbb4b23a341e911a1110179f60911b6040820152604e0190565b7f3c7465787420783d223132302220793d223237302220666f6e742d66616d696c8152600080516020612ae383398151915260208201527f2d73697a653d223330222066696c6c3d2223303030303030223e0000000000006040820152605a0190565b63071564b160e51b815260040190565b6124c5818760601b6bffffffffffffffffffffffff19169052565b661e17ba32bc3a1f60c91b60148201527f3c7465787420783d223132302220793d223332302220666f6e742d66616d696c601b820152600080516020612ae3833981519152603b8201527f2d73697a653d223330222066696c6c3d2223303030303030223e5465616d2000605b82015264071564b1d160dd1b607a820152607f81019050612564818660601b6bffffffffffffffffffffffff19169052565b661e17ba32bc3a1f60c91b60148201527f3c7465787420783d223132302220793d223337302220666f6e742d66616d696c601b820152600080516020612ae3833981519152603b8201527f2d73697a653d223330222066696c6c3d2223303030303030223e44617465206f605b8201526e0331030b1b434b2bb32b6b2b73a1d1608d1b607b8201526128076127f561276c6126b361261b612608608a87018a61219f565b661e17ba32bc3a1f60c91b815260070190565b7f3c7465787420783d223430302220793d223437302220666f6e742d66616d696c8152600080516020612ae383398151915260208201527f2d73697a653d2234322220746578742d616e63686f723d226d6964646c65222060408201527f66696c6c3d2223303030303030223e436f6e67726174756c6174696f6e73213c60608201526517ba32bc3a1f60d11b608082015260860190565b7f3c7465787420783d223430302220793d223532302220666f6e742d66616d696c8152600080516020612ae383398151915260208201527f2d73697a653d2233302220746578742d616e63686f723d226d6964646c65222060408201527f66696c6c3d2223303030303030223e596f75206861766520737563636573736660608201527f756c6c7920636f6d706c6574656420796f75722071756573742e3c2f746578746080820152601f60f91b60a082015260a10190565b7f3c7465787420783d223730302220793d223537302220666f6e742d66616d696c8152600080516020612ae383398151915260208201527f2d73697a653d2232342220746578742d616e63686f723d22656e64222066696c60408201527f6c3d2223303030303030223e426c6f636b71756573743c2f746578743e0000006060820152607d0190565b651e17b9bb339f60d11b815260060190565b9695505050505050565b727b226e616d65223a20224469706c6f6d61202360681b81528251600090612840816013850160208801611b9d565b7f222c20226465736372697074696f6e223a2022546869732069732061206469706013918401918201527f6c6f6d6120666f72207375636365737366756c6c7920636f6d706c6574696e6760338201527f20612067616d65207175657374222c2022696d616765223a2022646174613a696053820152731b5859d94bdcdd99cade1b5b0ed8985cd94d8d0b60621b607382015283516128e6816087840160208801611b9d565b61227d60f01b60879290910191820152608901949350505050565b7f646174613a6170706c69636174696f6e2f6a736f6e3b6261736536342c00000081526000825161293981601d850160208701611b9d565b91909101601d0192915050565b60208082526025908201527f4552433732313a207472616e736665722066726f6d20696e636f72726563742060408201526437bbb732b960d91b606082015260800190565b60208082526032908201527f4552433732313a207472616e7366657220746f206e6f6e20455243373231526560408201527131b2b4bb32b91034b6b83632b6b2b73a32b960711b606082015260800190565b808201808211156103b0576103b0612170565b600082612a0d57634e487b7160e01b600052601260045260246000fd5b500490565b80820281158282048414176103b0576103b0612170565b6001600160a01b038581168252841660208201526040810183905260806060820181905260009061280790830184611bc1565b600060208284031215612a6e57600080fd5b8151611b9681611b63565b818103818111156103b0576103b0612170565b634e487b7160e01b600052603160045260246000fdfe4142434445464748494a4b4c4d4e4f505152535455565758595a6162636465666768696a6b6c6d6e6f707172737475767778797a303132333435363738392b2f793d2244616e63696e67205363726970742c20637572736976652220666f6e74a2646970667358221220e4b72a7aab335610ba55e928656ed9bff7ab77206caf4e17d09b5f8fb7fe53ee64736f6c63430008120033",
  "linkReferences": {},
  "deployedLinkReferences": {}
}