{
  "_format": "hh-sol-artifact-1",
  "contractName": "GameMaster",
  "sourceName": "contracts/GameMaster.sol",
  "abi": [
    {
      "inputs": [
        {
          "internalType": "address",
          "name": "_teamContractAddress",
          "type": "address"
        }
      ],
      "stateMutability": "nonpayable",
      "type": "constructor"
    },
    {
      "anonymous": false,
      "inputs": [
        {
          "indexed": false,
          "internalType": "address",
          "name": "gmAddress",
          "type": "address"
        }
      ],
      "name": "GMRegistered",
      "type": "event"
    },
    {
      "inputs": [
        {
          "internalType": "string",
          "name": "name",
          "type": "string"
        },
        {
          "internalType": "string",
          "name": "surname",
          "type": "string"
        },
        {
          "internalType": "string",
          "name": "imageUri",
          "type": "string"
        },
        {
          "internalType": "string",
          "name": "biography",
          "type": "string"
        }
      ],
      "name": "createGM",
      "outputs": [],
      "stateMutability": "nonpayable",
      "type": "function"
    },
    {
      "inputs": [
        {
          "internalType": "string",
          "name": "_name",
          "type": "string"
        },
        {
          "internalType": "string",
          "name": "image",
          "type": "string"
        },
        {
          "internalType": "string",
          "name": "_desc",
          "type": "string"
        }
      ],
      "name": "createTeam",
      "outputs": [
        {
          "internalType": "uint256",
          "name": "",
          "type": "uint256"
        }
      ],
      "stateMutability": "nonpayable",
      "type": "function"
    },
    {
      "inputs": [
        {
          "internalType": "uint256",
          "name": "teamId",
          "type": "uint256"
        }
      ],
      "name": "deleteTeam",
      "outputs": [],
      "stateMutability": "nonpayable",
      "type": "function"
    },
    {
      "inputs": [
        {
          "internalType": "uint256",
          "name": "teamId",
          "type": "uint256"
        }
      ],
      "name": "endGame",
      "outputs": [],
      "stateMutability": "nonpayable",
      "type": "function"
    },
    {
      "inputs": [
        {
          "internalType": "address",
          "name": "",
          "type": "address"
        }
      ],
      "name": "gameMasters",
      "outputs": [
        {
          "internalType": "string",
          "name": "name",
          "type": "string"
        },
        {
          "internalType": "string",
          "name": "surname",
          "type": "string"
        },
        {
          "internalType": "string",
          "name": "imageUri",
          "type": "string"
        },
        {
          "internalType": "string",
          "name": "biography",
          "type": "string"
        },
        {
          "internalType": "address",
          "name": "gmAddress",
          "type": "address"
        }
      ],
      "stateMutability": "view",
      "type": "function"
    },
    {
      "inputs": [
        {
          "internalType": "uint256",
          "name": "teamId",
          "type": "uint256"
        },
        {
          "internalType": "uint256",
          "name": "amount",
          "type": "uint256"
        }
      ],
      "name": "startGame",
      "outputs": [],
      "stateMutability": "nonpayable",
      "type": "function"
    },
    {
      "inputs": [],
      "name": "teamContract",
      "outputs": [
        {
          "internalType": "contract Team",
          "name": "",
          "type": "address"
        }
      ],
      "stateMutability": "view",
      "type": "function"
    }
  ],
  "bytecode": "0x608060405234801561001057600080fd5b50604051610c9b380380610c9b83398101604081905261002f91610054565b600180546001600160a01b0319166001600160a01b0392909216919091179055610084565b60006020828403121561006657600080fd5b81516001600160a01b038116811461007d57600080fd5b9392505050565b610c08806100936000396000f3fe608060405234801561001057600080fd5b506004361061007d5760003560e01c8063a889e9a91161005b578063a889e9a9146100d7578063b5d7d3d8146100f8578063d0399bb814610123578063ea842e651461013657600080fd5b80634080d64014610082578063730b8381146100af57806392b48a42146100c4575b600080fd5b6100956100903660046106eb565b610149565b6040516100a6959493929190610761565b60405180910390f35b6100c26100bd3660046107c9565b6103a0565b005b6100c26100d236600461088e565b61044a565b6100ea6100e536600461093b565b610531565b6040519081526020016100a6565b60015461010b906001600160a01b031681565b6040516001600160a01b0390911681526020016100a6565b6100c26101313660046109c3565b6105e8565b6100c26101443660046109c3565b610682565b600060208190529081526040902080548190610164906109dc565b80601f0160208091040260200160405190810160405280929190818152602001828054610190906109dc565b80156101dd5780601f106101b2576101008083540402835291602001916101dd565b820191906000526020600020905b8154815290600101906020018083116101c057829003601f168201915b5050505050908060010180546101f2906109dc565b80601f016020809104026020016040519081016040528092919081815260200182805461021e906109dc565b801561026b5780601f106102405761010080835404028352916020019161026b565b820191906000526020600020905b81548152906001019060200180831161024e57829003601f168201915b505050505090806002018054610280906109dc565b80601f01602080910402602001604051908101604052809291908181526020018280546102ac906109dc565b80156102f95780601f106102ce576101008083540402835291602001916102f9565b820191906000526020600020905b8154815290600101906020018083116102dc57829003601f168201915b50505050509080600301805461030e906109dc565b80601f016020809104026020016040519081016040528092919081815260200182805461033a906109dc565b80156103875780601f1061035c57610100808354040283529160200191610387565b820191906000526020600020905b81548152906001019060200180831161036a57829003601f168201915b505050600490930154919250506001600160a01b031685565b336000908152602081905260409020600401546001600160a01b03166103e15760405162461bcd60e51b81526004016103d890610a16565b60405180910390fd5b600154604051637b00b25760e01b815260048101849052602481018390526001600160a01b0390911690637b00b25790604401600060405180830381600087803b15801561042e57600080fd5b505af1158015610442573d6000803e3d6000fd5b505050505050565b6040805160a0810182528581526020808201869052818301859052606082018490523360808301819052600090815290819052919091208151819061048f9082610ab6565b50602082015160018201906104a49082610ab6565b50604082015160028201906104b99082610ab6565b50606082015160038201906104ce9082610ab6565b5060809190910151600490910180546001600160a01b0319166001600160a01b039092169190911790556040513381527f945855da1b30ca5beb79507f6532069975105beab7493b9e4f78e28f66305f629060200160405180910390a150505050565b336000908152602081905260408120600401546001600160a01b03166105695760405162461bcd60e51b81526004016103d890610a16565b60015460405163a889e9a960e01b81526001600160a01b039091169063a889e9a99061059d90879087908790600401610b76565b6020604051808303816000875af11580156105bc573d6000803e3d6000fd5b505050506040513d601f19601f820116820180604052508101906105e09190610bb9565b949350505050565b336000908152602081905260409020600401546001600160a01b03166106205760405162461bcd60e51b81526004016103d890610a16565b6001546040516326cc558360e01b8152600481018390526001600160a01b03909116906326cc5583906024015b600060405180830381600087803b15801561066757600080fd5b505af115801561067b573d6000803e3d6000fd5b5050505050565b336000908152602081905260409020600401546001600160a01b03166106ba5760405162461bcd60e51b81526004016103d890610a16565b60015460405163ea842e6560e01b8152600481018390526001600160a01b039091169063ea842e659060240161064d565b6000602082840312156106fd57600080fd5b81356001600160a01b038116811461071457600080fd5b9392505050565b6000815180845260005b8181101561074157602081850181015186830182015201610725565b506000602082860101526020601f19601f83011685010191505092915050565b60a08152600061077460a083018861071b565b8281036020840152610786818861071b565b9050828103604084015261079a818761071b565b905082810360608401526107ae818661071b565b91505060018060a01b03831660808301529695505050505050565b600080604083850312156107dc57600080fd5b50508035926020909101359150565b634e487b7160e01b600052604160045260246000fd5b600082601f83011261081257600080fd5b813567ffffffffffffffff8082111561082d5761082d6107eb565b604051601f8301601f19908116603f01168101908282118183101715610855576108556107eb565b8160405283815286602085880101111561086e57600080fd5b836020870160208301376000602085830101528094505050505092915050565b600080600080608085870312156108a457600080fd5b843567ffffffffffffffff808211156108bc57600080fd5b6108c888838901610801565b955060208701359150808211156108de57600080fd5b6108ea88838901610801565b9450604087013591508082111561090057600080fd5b61090c88838901610801565b9350606087013591508082111561092257600080fd5b5061092f87828801610801565b91505092959194509250565b60008060006060848603121561095057600080fd5b833567ffffffffffffffff8082111561096857600080fd5b61097487838801610801565b9450602086013591508082111561098a57600080fd5b61099687838801610801565b935060408601359150808211156109ac57600080fd5b506109b986828701610801565b9150509250925092565b6000602082840312156109d557600080fd5b5035919050565b600181811c908216806109f057607f821691505b602082108103610a1057634e487b7160e01b600052602260045260246000fd5b50919050565b60208082526035908201527f4f6e6c79206120726567697374657265642047616d65204d617374657220636160408201527437103832b93337b936903a3434b99030b1ba34b7b760591b606082015260800190565b601f821115610ab157600081815260208120601f850160051c81016020861015610a925750805b601f850160051c820191505b8181101561044257828155600101610a9e565b505050565b815167ffffffffffffffff811115610ad057610ad06107eb565b610ae481610ade84546109dc565b84610a6b565b602080601f831160018114610b195760008415610b015750858301515b600019600386901b1c1916600185901b178555610442565b600085815260208120601f198616915b82811015610b4857888601518255948401946001909101908401610b29565b5085821015610b665787850151600019600388901b60f8161c191681555b5050505050600190811b01905550565b606081526000610b89606083018661071b565b8281036020840152610b9b818661071b565b90508281036040840152610baf818561071b565b9695505050505050565b600060208284031215610bcb57600080fd5b505191905056fea26469706673582212208a71a827f87c39792f5e4bfc6e7732eb33c76ceb21372bc2a0e0e79d11d6e74364736f6c63430008120033",
  "linkReferences": {},
  "deployedLinkReferences": {}
}