{
  "_format": "hh-sol-artifact-1",
  "contractName": "Player",
  "sourceName": "contracts/Player.sol",
  "abi": [
    {
      "inputs": [
        {
          "internalType": "contract Team",
          "name": "_teamContract",
          "type": "address"
        }
      ],
      "stateMutability": "nonpayable",
      "type": "constructor"
    },
    {
      "anonymous": false,
      "inputs": [
        {
          "indexed": false,
          "internalType": "address",
          "name": "player",
          "type": "address"
        },
        {
          "indexed": false,
          "internalType": "uint8",
          "name": "damage",
          "type": "uint8"
        }
      ],
      "name": "DamageReceived",
      "type": "event"
    },
    {
      "anonymous": false,
      "inputs": [
        {
          "indexed": false,
          "internalType": "address",
          "name": "player",
          "type": "address"
        },
        {
          "indexed": false,
          "internalType": "uint8",
          "name": "result",
          "type": "uint8"
        }
      ],
      "name": "DiceRolled",
      "type": "event"
    },
    {
      "anonymous": false,
      "inputs": [
        {
          "indexed": false,
          "internalType": "address",
          "name": "player",
          "type": "address"
        },
        {
          "indexed": false,
          "internalType": "string",
          "name": "message",
          "type": "string"
        }
      ],
      "name": "MessageSent",
      "type": "event"
    },
    {
      "anonymous": false,
      "inputs": [
        {
          "indexed": false,
          "internalType": "address",
          "name": "player",
          "type": "address"
        }
      ],
      "name": "PlayerDied",
      "type": "event"
    },
    {
      "anonymous": false,
      "inputs": [
        {
          "indexed": false,
          "internalType": "address",
          "name": "player",
          "type": "address"
        }
      ],
      "name": "PlayerRegistered",
      "type": "event"
    },
    {
      "anonymous": false,
      "inputs": [
        {
          "indexed": false,
          "internalType": "address",
          "name": "player",
          "type": "address"
        },
        {
          "indexed": false,
          "internalType": "uint256",
          "name": "teamId",
          "type": "uint256"
        }
      ],
      "name": "SessionJoined",
      "type": "event"
    },
    {
      "anonymous": false,
      "inputs": [
        {
          "indexed": false,
          "internalType": "address",
          "name": "player",
          "type": "address"
        },
        {
          "indexed": false,
          "internalType": "uint256",
          "name": "teamId",
          "type": "uint256"
        }
      ],
      "name": "TeamJoined",
      "type": "event"
    },
    {
      "inputs": [
        {
          "internalType": "uint256",
          "name": "teamId",
          "type": "uint256"
        }
      ],
      "name": "checkSessionAvailability",
      "outputs": [
        {
          "internalType": "bool",
          "name": "",
          "type": "bool"
        }
      ],
      "stateMutability": "view",
      "type": "function"
    },
    {
      "inputs": [
        {
          "internalType": "address",
          "name": "_playerAddress",
          "type": "address"
        }
      ],
      "name": "getPlayerAddress",
      "outputs": [
        {
          "internalType": "address",
          "name": "",
          "type": "address"
        }
      ],
      "stateMutability": "view",
      "type": "function"
    },
    {
      "inputs": [
        {
          "internalType": "address",
          "name": "_playerAddress",
          "type": "address"
        }
      ],
      "name": "getPlayerFirstName",
      "outputs": [
        {
          "internalType": "string",
          "name": "",
          "type": "string"
        }
      ],
      "stateMutability": "view",
      "type": "function"
    },
    {
      "inputs": [
        {
          "internalType": "address",
          "name": "_playerAddress",
          "type": "address"
        }
      ],
      "name": "getPlayerLastName",
      "outputs": [
        {
          "internalType": "string",
          "name": "",
          "type": "string"
        }
      ],
      "stateMutability": "view",
      "type": "function"
    },
    {
      "inputs": [
        {
          "internalType": "uint256",
          "name": "teamId",
          "type": "uint256"
        }
      ],
      "name": "joinTeam",
      "outputs": [],
      "stateMutability": "nonpayable",
      "type": "function"
    },
    {
      "inputs": [
        {
          "internalType": "address",
          "name": "",
          "type": "address"
        },
        {
          "internalType": "address",
          "name": "",
          "type": "address"
        },
        {
          "internalType": "uint256",
          "name": "",
          "type": "uint256"
        },
        {
          "internalType": "bytes",
          "name": "",
          "type": "bytes"
        }
      ],
      "name": "onERC721Received",
      "outputs": [
        {
          "internalType": "bytes4",
          "name": "",
          "type": "bytes4"
        }
      ],
      "stateMutability": "nonpayable",
      "type": "function"
    },
    {
      "inputs": [
        {
          "internalType": "address",
          "name": "",
          "type": "address"
        }
      ],
      "name": "players",
      "outputs": [
        {
          "internalType": "string",
          "name": "firstName",
          "type": "string"
        },
        {
          "internalType": "string",
          "name": "lastName",
          "type": "string"
        },
        {
          "internalType": "string",
          "name": "image",
          "type": "string"
        },
        {
          "internalType": "string",
          "name": "description",
          "type": "string"
        },
        {
          "internalType": "address",
          "name": "playerAddress",
          "type": "address"
        },
        {
          "components": [
            {
              "internalType": "string",
              "name": "characterType",
              "type": "string"
            },
            {
              "internalType": "string",
              "name": "characterClass",
              "type": "string"
            },
            {
              "internalType": "uint8",
              "name": "initiative",
              "type": "uint8"
            },
            {
              "internalType": "uint8",
              "name": "strength",
              "type": "uint8"
            },
            {
              "internalType": "uint8",
              "name": "defense",
              "type": "uint8"
            },
            {
              "internalType": "uint8",
              "name": "intelligence",
              "type": "uint8"
            },
            {
              "internalType": "uint8",
              "name": "magic",
              "type": "uint8"
            },
            {
              "internalType": "uint8",
              "name": "healthPoints",
              "type": "uint8"
            },
            {
              "internalType": "bool",
              "name": "isAlive",
              "type": "bool"
            }
          ],
          "internalType": "struct Player.Character",
          "name": "character",
          "type": "tuple"
        },
        {
          "internalType": "uint256",
          "name": "teamId",
          "type": "uint256"
        }
      ],
      "stateMutability": "view",
      "type": "function"
    },
    {
      "inputs": [
        {
          "internalType": "string",
          "name": "firstName",
          "type": "string"
        },
        {
          "internalType": "string",
          "name": "lastName",
          "type": "string"
        },
        {
          "internalType": "string",
          "name": "image",
          "type": "string"
        },
        {
          "internalType": "string",
          "name": "description",
          "type": "string"
        }
      ],
      "name": "registerPlayer",
      "outputs": [],
      "stateMutability": "nonpayable",
      "type": "function"
    }
  ],
  "bytecode": "0x600360e08181526222b63360e91b610100526080908152600561012081815264223bb0b93360d91b6101405260a0526101a060405261016090815264243ab6b0b760d91b6101805260c052620000599160029190620001ab565b506040805161012081018252600660e0820181815265243ab73a32b960d11b6101008401528252825180840184526005808252642a3434b2b360d91b602083810191909152808501929092528451808601865260098152682130b93130b934b0b760b91b818401528486015284518086018652838152652432b0b632b960d11b81840152606085015284518086018652600780825266141c9bdc1a195d60ca1b82850152608086019190915285518087018752918252641099585c9960da1b8284015260a085019190915284518086019095529184526520b931b432b960d11b9084015260c082019290925262000154916003919062000208565b503480156200016257600080fd5b50604051620018cf380380620018cf8339810160408190526200018591620002cd565b600180546001600160a01b0319166001600160a01b039290921691909117905562000470565b828054828255906000526020600020908101928215620001f6579160200282015b82811115620001f65782518290620001e59082620003a4565b5091602001919060010190620001cc565b506200020492915062000253565b5090565b828054828255906000526020600020908101928215620001f6579160200282015b82811115620001f65782518290620002429082620003a4565b509160200191906001019062000229565b80821115620002045760006200026a828262000274565b5060010162000253565b508054620002829062000315565b6000825580601f1062000293575050565b601f016020900490600052602060002090810190620002b39190620002b6565b50565b5b80821115620002045760008155600101620002b7565b600060208284031215620002e057600080fd5b81516001600160a01b0381168114620002f857600080fd5b9392505050565b634e487b7160e01b600052604160045260246000fd5b600181811c908216806200032a57607f821691505b6020821081036200034b57634e487b7160e01b600052602260045260246000fd5b50919050565b601f8211156200039f57600081815260208120601f850160051c810160208610156200037a5750805b601f850160051c820191505b818110156200039b5782815560010162000386565b5050505b505050565b81516001600160401b03811115620003c057620003c0620002ff565b620003d881620003d1845462000315565b8462000351565b602080601f831160018114620004105760008415620003f75750858301515b600019600386901b1c1916600185901b1785556200039b565b600085815260208120601f198616915b82811015620004415788860151825594840194600190910190840162000420565b5085821015620004605787850151600019600388901b60f8161c191681555b5050505050600190811b01905550565b61144f80620004806000396000f3fe608060405234801561001057600080fd5b50600436106100885760003560e01c8063e2eb41ff1161005b578063e2eb41ff14610146578063e62e28081461016c578063fa3831a01461017f578063fe7060b81461019257600080fd5b80630926e6a21461008d578063150b7a02146100a257806339b3b6df146100df578063a2d616fa146100ff575b600080fd5b6100a061009b366004610e6f565b6101b5565b005b6100c16100b0366004610ea4565b630a85bd0160e11b95945050505050565b6040516001600160e01b031990911681526020015b60405180910390f35b6100f26100ed366004610f3f565b6102d8565b6040516100d69190610fa7565b61012e61010d366004610f3f565b6001600160a01b039081166000908152602081905260409020600401541690565b6040516001600160a01b0390911681526020016100d6565b610159610154366004610f3f565b610387565b6040516100d69796959493929190610fba565b6100a061017a36600461118f565b610788565b6100f261018d366004610f3f565b610d92565b6101a56101a0366004610e6f565b610db9565b60405190151581526020016100d6565b33600090815260208190526040902060070154600160301b900460ff166102195760405162461bcd60e51b8152602060048201526013602482015272506c61796572206973206e6f7420616c69766560681b60448201526064015b60405180910390fd5b600154604051630493735160e11b8152600481018390526001600160a01b0390911690630926e6a2906024016020604051808303816000875af1158015610264573d6000803e3d6000fd5b505050506040513d601f19601f82011682018060405250810190610288919061123c565b503360008181526020818152604091829020600801849055815192835282018390527f6c7770961bb93c625c3f8936c01a405410fb29f717e867a09655bebf4782afe8910160405180910390a150565b6001600160a01b038116600090815260208190526040902060010180546060919061030290611255565b80601f016020809104026020016040519081016040528092919081815260200182805461032e90611255565b801561037b5780601f106103505761010080835404028352916020019161037b565b820191906000526020600020905b81548152906001019060200180831161035e57829003601f168201915b50505050509050919050565b6000602081905290815260409020805481906103a290611255565b80601f01602080910402602001604051908101604052809291908181526020018280546103ce90611255565b801561041b5780601f106103f05761010080835404028352916020019161041b565b820191906000526020600020905b8154815290600101906020018083116103fe57829003601f168201915b50505050509080600101805461043090611255565b80601f016020809104026020016040519081016040528092919081815260200182805461045c90611255565b80156104a95780601f1061047e576101008083540402835291602001916104a9565b820191906000526020600020905b81548152906001019060200180831161048c57829003601f168201915b5050505050908060020180546104be90611255565b80601f01602080910402602001604051908101604052809291908181526020018280546104ea90611255565b80156105375780601f1061050c57610100808354040283529160200191610537565b820191906000526020600020905b81548152906001019060200180831161051a57829003601f168201915b50505050509080600301805461054c90611255565b80601f016020809104026020016040519081016040528092919081815260200182805461057890611255565b80156105c55780601f1061059a576101008083540402835291602001916105c5565b820191906000526020600020905b8154815290600101906020018083116105a857829003601f168201915b5050505050908060040160009054906101000a90046001600160a01b031690806005016040518061012001604052908160008201805461060490611255565b80601f016020809104026020016040519081016040528092919081815260200182805461063090611255565b801561067d5780601f106106525761010080835404028352916020019161067d565b820191906000526020600020905b81548152906001019060200180831161066057829003601f168201915b5050505050815260200160018201805461069690611255565b80601f01602080910402602001604051908101604052809291908181526020018280546106c290611255565b801561070f5780601f106106e45761010080835404028352916020019161070f565b820191906000526020600020905b8154815290600101906020018083116106f257829003601f168201915b50505091835250506002919091015460ff80821660208401526101008204811660408401526201000082048116606084015263010000008204811660808401526401000000008204811660a0840152650100000000008204811660c0840152600160301b90910416151560e09091015260089091015487565b33600090815260208190526040902080546107a290611255565b1590506107f15760405162461bcd60e51b815260206004820152601960248201527f506c6179657220616c72656164792072656769737465726564000000000000006044820152606401610210565b600084511161083b5760405162461bcd60e51b8152602060048201526016602482015275119a5c9cdd081b985b59481a5cc81c995c5d5a5c995960521b6044820152606401610210565b60008351116108845760405162461bcd60e51b815260206004820152601560248201527413185cdd081b985b59481a5cc81c995c5d5a5c9959605a1b6044820152606401610210565b60008251116108c95760405162461bcd60e51b8152602060048201526011602482015270125b5859d9481a5cc81c995c5d5a5c9959607a1b6044820152606401610210565b600081511161091a5760405162461bcd60e51b815260206004820152601760248201527f4465736372697074696f6e2069732072657175697265640000000000000000006044820152606401610210565b6101008151111561096d5760405162461bcd60e51b815260206004820152601760248201527f4465736372697074696f6e20697320746f6f206c6f6e670000000000000000006044820152606401610210565b6000600261097f600280549050610e2d565b8154811061098f5761098f61128f565b9060005260206000200180546109a490611255565b80601f01602080910402602001604051908101604052809291908181526020018280546109d090611255565b8015610a1d5780601f106109f257610100808354040283529160200191610a1d565b820191906000526020600020905b815481529060010190602001808311610a0057829003601f168201915b5050505050905060006003610a36600380549050610e2d565b81548110610a4657610a4661128f565b906000526020600020018054610a5b90611255565b80601f0160208091040260200160405190810160405280929190818152602001828054610a8790611255565b8015610ad45780601f10610aa957610100808354040283529160200191610ad4565b820191906000526020600020905b815481529060010190602001808311610ab757829003601f168201915b505050505090506000610ae7600b610e2d565b610af290600a6112a5565b90506000610b00600b610e2d565b610b0b90600a6112a5565b90506000610b19600b610e2d565b610b2490600a6112a5565b90506000610b32600b610e2d565b610b3d90600a6112a5565b90506000610b4b600b610e2d565b610b5690600a6112a5565b90506040518060e001604052808c81526020018b81526020018a8152602001898152602001336001600160a01b031681526020016040518061012001604052808a81526020018981526020018860ff1681526020018760ff1681526020018660ff1681526020018560ff1681526020018460ff168152602001601460ff1681526020016001151581525081526020016000815250600080336001600160a01b03166001600160a01b031681526020019081526020016000206000820151816000019081610c239190611315565b5060208201516001820190610c389082611315565b5060408201516002820190610c4d9082611315565b5060608201516003820190610c629082611315565b5060808201516004820180546001600160a01b0319166001600160a01b0390921691909117905560a0820151805160058301908190610ca19082611315565b5060208201516001820190610cb69082611315565b506040820151600290910180546060840151608085015160a086015160c08088015160e0890151610100998a01511515600160301b0266ff0000000000001960ff928316650100000000000265ff000000000019948416640100000000029490941665ffff000000001996841663010000000263ff0000001998851662010000029890981663ffff000019998516909d0261ffff19909a1693909b169290921797909717959095169890981792909217169490941794909417939093169290921790915591909101516008909101555050505050505050505050565b6001600160a01b038116600090815260208190526040902080546060919061030290611255565b600154604051631f43e9dd60e11b8152600481018390526000916001600160a01b031690633e87d3ba90602401602060405180830381865afa158015610e03573d6000803e3d6000fd5b505050506040513d601f19601f82011682018060405250810190610e2791906113d5565b92915050565b6000814244604051602001610e4c929190918252602082015260400190565b6040516020818303038152906040528051906020012060001c610e2791906113f7565b600060208284031215610e8157600080fd5b5035919050565b80356001600160a01b0381168114610e9f57600080fd5b919050565b600080600080600060808688031215610ebc57600080fd5b610ec586610e88565b9450610ed360208701610e88565b935060408601359250606086013567ffffffffffffffff80821115610ef757600080fd5b818801915088601f830112610f0b57600080fd5b813581811115610f1a57600080fd5b896020828501011115610f2c57600080fd5b9699959850939650602001949392505050565b600060208284031215610f5157600080fd5b610f5a82610e88565b9392505050565b6000815180845260005b81811015610f8757602081850181015186830182015201610f6b565b506000602082860101526020601f19601f83011685010191505092915050565b602081526000610f5a6020830184610f61565b60e081526000610fcd60e083018a610f61565b8281036020840152610fdf818a610f61565b90508281036040840152610ff38189610f61565b905082810360608401526110078188610f61565b6001600160a01b038716608085015283810360a0850152855161012080835291925061103582840182610f61565b9150506020860151828203602084015261104f8282610f61565b9150506040860151611066604084018260ff169052565b50606086015161107b606084018260ff169052565b506080860151611090608084018260ff169052565b5060a08601516110a560a084018260ff169052565b5060c08601516110ba60c084018260ff169052565b5060e08601516110cf60e084018260ff169052565b5061010095860151151591909501525060c0015295945050505050565b634e487b7160e01b600052604160045260246000fd5b600082601f83011261111357600080fd5b813567ffffffffffffffff8082111561112e5761112e6110ec565b604051601f8301601f19908116603f01168101908282118183101715611156576111566110ec565b8160405283815286602085880101111561116f57600080fd5b836020870160208301376000602085830101528094505050505092915050565b600080600080608085870312156111a557600080fd5b843567ffffffffffffffff808211156111bd57600080fd5b6111c988838901611102565b955060208701359150808211156111df57600080fd5b6111eb88838901611102565b9450604087013591508082111561120157600080fd5b61120d88838901611102565b9350606087013591508082111561122357600080fd5b5061123087828801611102565b91505092959194509250565b60006020828403121561124e57600080fd5b5051919050565b600181811c9082168061126957607f821691505b60208210810361128957634e487b7160e01b600052602260045260246000fd5b50919050565b634e487b7160e01b600052603260045260246000fd5b80820180821115610e2757634e487b7160e01b600052601160045260246000fd5b601f82111561131057600081815260208120601f850160051c810160208610156112ed5750805b601f850160051c820191505b8181101561130c578281556001016112f9565b5050505b505050565b815167ffffffffffffffff81111561132f5761132f6110ec565b6113438161133d8454611255565b846112c6565b602080601f83116001811461137857600084156113605750858301515b600019600386901b1c1916600185901b17855561130c565b600085815260208120601f198616915b828110156113a757888601518255948401946001909101908401611388565b50858210156113c55787850151600019600388901b60f8161c191681555b5050505050600190811b01905550565b6000602082840312156113e757600080fd5b81518015158114610f5a57600080fd5b60008261141457634e487b7160e01b600052601260045260246000fd5b50069056fea2646970667358221220d54e40f9cb09f7a52cf02d0630c9d6d102fcd6858a9377470a227aa6730ac81464736f6c63430008120033",
  "linkReferences": {},
  "deployedLinkReferences": {}
}