{
  "_format": "hh-sol-artifact-1",
  "contractName": "Session",
  "sourceName": "contracts/Session.sol",
  "abi": [
    {
      "anonymous": false,
      "inputs": [
        {
          "indexed": true,
          "internalType": "uint256",
          "name": "teamId",
          "type": "uint256"
        },
        {
          "indexed": false,
          "internalType": "address",
          "name": "roller",
          "type": "address"
        },
        {
          "indexed": false,
          "internalType": "uint8",
          "name": "result",
          "type": "uint8"
        }
      ],
      "name": "DiceRoll",
      "type": "event"
    },
    {
      "anonymous": false,
      "inputs": [
        {
          "indexed": true,
          "internalType": "uint256",
          "name": "teamId",
          "type": "uint256"
        },
        {
          "indexed": false,
          "internalType": "address",
          "name": "sender",
          "type": "address"
        },
        {
          "indexed": false,
          "internalType": "string",
          "name": "content",
          "type": "string"
        }
      ],
      "name": "MessageSent",
      "type": "event"
    },
    {
      "anonymous": false,
      "inputs": [
        {
          "indexed": true,
          "internalType": "uint256",
          "name": "teamId",
          "type": "uint256"
        },
        {
          "indexed": true,
          "internalType": "uint256",
          "name": "monsterId",
          "type": "uint256"
        },
        {
          "indexed": false,
          "internalType": "string",
          "name": "monsterType",
          "type": "string"
        },
        {
          "indexed": false,
          "internalType": "uint8",
          "name": "strength",
          "type": "uint8"
        }
      ],
      "name": "MonsterAdded",
      "type": "event"
    },
    {
      "anonymous": false,
      "inputs": [
        {
          "indexed": true,
          "internalType": "uint256",
          "name": "teamId",
          "type": "uint256"
        },
        {
          "indexed": false,
          "internalType": "string",
          "name": "name",
          "type": "string"
        },
        {
          "indexed": false,
          "internalType": "uint256",
          "name": "gold",
          "type": "uint256"
        }
      ],
      "name": "MonsterKilled",
      "type": "event"
    },
    {
      "anonymous": false,
      "inputs": [
        {
          "indexed": true,
          "internalType": "uint256",
          "name": "teamId",
          "type": "uint256"
        },
        {
          "indexed": true,
          "internalType": "uint256",
          "name": "monsterId",
          "type": "uint256"
        }
      ],
      "name": "MonsterRemoved",
      "type": "event"
    },
    {
      "anonymous": false,
      "inputs": [
        {
          "indexed": true,
          "internalType": "uint256",
          "name": "teamId",
          "type": "uint256"
        },
        {
          "indexed": true,
          "internalType": "address",
          "name": "playerAddress",
          "type": "address"
        }
      ],
      "name": "PlayerJoined",
      "type": "event"
    },
    {
      "anonymous": false,
      "inputs": [
        {
          "indexed": true,
          "internalType": "uint256",
          "name": "teamId",
          "type": "uint256"
        },
        {
          "indexed": true,
          "internalType": "address",
          "name": "playerAddress",
          "type": "address"
        }
      ],
      "name": "PlayerLeft",
      "type": "event"
    },
    {
      "anonymous": false,
      "inputs": [
        {
          "indexed": false,
          "internalType": "uint256",
          "name": "teamId",
          "type": "uint256"
        },
        {
          "indexed": false,
          "internalType": "address",
          "name": "gameMaster",
          "type": "address"
        }
      ],
      "name": "SessionCreated",
      "type": "event"
    },
    {
      "inputs": [
        {
          "internalType": "uint256",
          "name": "teamId",
          "type": "uint256"
        },
        {
          "internalType": "string",
          "name": "name",
          "type": "string"
        },
        {
          "internalType": "uint8",
          "name": "level",
          "type": "uint8"
        },
        {
          "internalType": "uint8",
          "name": "hitPoints",
          "type": "uint8"
        },
        {
          "internalType": "uint8",
          "name": "damage",
          "type": "uint8"
        },
        {
          "internalType": "uint8",
          "name": "experience",
          "type": "uint8"
        },
        {
          "internalType": "uint256",
          "name": "gold",
          "type": "uint256"
        }
      ],
      "name": "addMonster",
      "outputs": [],
      "stateMutability": "nonpayable",
      "type": "function"
    },
    {
      "inputs": [
        {
          "internalType": "uint256",
          "name": "teamId",
          "type": "uint256"
        },
        {
          "internalType": "address",
          "name": "gameMasterAddress",
          "type": "address"
        },
        {
          "internalType": "address[]",
          "name": "playerAddresses",
          "type": "address[]"
        },
        {
          "internalType": "uint256",
          "name": "feeAmount",
          "type": "uint256"
        }
      ],
      "name": "createSession",
      "outputs": [
        {
          "internalType": "uint256",
          "name": "",
          "type": "uint256"
        }
      ],
      "stateMutability": "nonpayable",
      "type": "function"
    },
    {
      "inputs": [
        {
          "internalType": "uint256",
          "name": "teamId",
          "type": "uint256"
        }
      ],
      "name": "endSession",
      "outputs": [],
      "stateMutability": "nonpayable",
      "type": "function"
    },
    {
      "inputs": [
        {
          "internalType": "uint256",
          "name": "teamId",
          "type": "uint256"
        }
      ],
      "name": "getEndTime",
      "outputs": [
        {
          "internalType": "uint256",
          "name": "",
          "type": "uint256"
        }
      ],
      "stateMutability": "view",
      "type": "function"
    },
    {
      "inputs": [
        {
          "internalType": "uint256",
          "name": "teamId",
          "type": "uint256"
        }
      ],
      "name": "getMonsterCount",
      "outputs": [
        {
          "internalType": "uint256",
          "name": "",
          "type": "uint256"
        }
      ],
      "stateMutability": "view",
      "type": "function"
    },
    {
      "inputs": [
        {
          "internalType": "uint256",
          "name": "teamId",
          "type": "uint256"
        }
      ],
      "name": "getMonstersKilled",
      "outputs": [
        {
          "internalType": "uint256",
          "name": "",
          "type": "uint256"
        }
      ],
      "stateMutability": "view",
      "type": "function"
    },
    {
      "inputs": [
        {
          "internalType": "uint256",
          "name": "teamId",
          "type": "uint256"
        }
      ],
      "name": "getPaidPlayers",
      "outputs": [
        {
          "internalType": "address[]",
          "name": "",
          "type": "address[]"
        }
      ],
      "stateMutability": "view",
      "type": "function"
    },
    {
      "inputs": [
        {
          "internalType": "uint256",
          "name": "teamId",
          "type": "uint256"
        }
      ],
      "name": "getPlayers",
      "outputs": [
        {
          "internalType": "address[]",
          "name": "",
          "type": "address[]"
        }
      ],
      "stateMutability": "view",
      "type": "function"
    },
    {
      "inputs": [
        {
          "internalType": "uint256",
          "name": "teamId",
          "type": "uint256"
        }
      ],
      "name": "getStartTime",
      "outputs": [
        {
          "internalType": "uint256",
          "name": "",
          "type": "uint256"
        }
      ],
      "stateMutability": "view",
      "type": "function"
    },
    {
      "inputs": [
        {
          "internalType": "uint256",
          "name": "teamId",
          "type": "uint256"
        }
      ],
      "name": "getTotalGold",
      "outputs": [
        {
          "internalType": "uint256",
          "name": "",
          "type": "uint256"
        }
      ],
      "stateMutability": "view",
      "type": "function"
    },
    {
      "inputs": [
        {
          "internalType": "uint256",
          "name": "teamId",
          "type": "uint256"
        }
      ],
      "name": "getTotalPlayTime",
      "outputs": [
        {
          "internalType": "uint256",
          "name": "",
          "type": "uint256"
        }
      ],
      "stateMutability": "view",
      "type": "function"
    },
    {
      "inputs": [
        {
          "internalType": "uint256",
          "name": "teamId",
          "type": "uint256"
        }
      ],
      "name": "isActive",
      "outputs": [
        {
          "internalType": "bool",
          "name": "",
          "type": "bool"
        }
      ],
      "stateMutability": "view",
      "type": "function"
    },
    {
      "inputs": [
        {
          "internalType": "uint256",
          "name": "teamId",
          "type": "uint256"
        },
        {
          "internalType": "address",
          "name": "playerAddress",
          "type": "address"
        }
      ],
      "name": "isActivePlayer",
      "outputs": [
        {
          "internalType": "bool",
          "name": "",
          "type": "bool"
        }
      ],
      "stateMutability": "view",
      "type": "function"
    },
    {
      "inputs": [
        {
          "internalType": "uint256",
          "name": "teamId",
          "type": "uint256"
        },
        {
          "internalType": "uint256",
          "name": "monsterIndex",
          "type": "uint256"
        }
      ],
      "name": "killMonster",
      "outputs": [],
      "stateMutability": "nonpayable",
      "type": "function"
    },
    {
      "inputs": [
        {
          "internalType": "uint256",
          "name": "teamId",
          "type": "uint256"
        }
      ],
      "name": "payFee",
      "outputs": [],
      "stateMutability": "payable",
      "type": "function"
    },
    {
      "inputs": [
        {
          "internalType": "uint256",
          "name": "teamId",
          "type": "uint256"
        },
        {
          "internalType": "uint256",
          "name": "monsterIndex",
          "type": "uint256"
        }
      ],
      "name": "removeMonster",
      "outputs": [],
      "stateMutability": "nonpayable",
      "type": "function"
    },
    {
      "inputs": [
        {
          "internalType": "uint256",
          "name": "teamId",
          "type": "uint256"
        },
        {
          "internalType": "uint8",
          "name": "diceSides",
          "type": "uint8"
        }
      ],
      "name": "rollDice",
      "outputs": [
        {
          "internalType": "uint8",
          "name": "",
          "type": "uint8"
        }
      ],
      "stateMutability": "nonpayable",
      "type": "function"
    },
    {
      "inputs": [
        {
          "internalType": "uint256",
          "name": "teamId",
          "type": "uint256"
        },
        {
          "internalType": "string",
          "name": "content",
          "type": "string"
        }
      ],
      "name": "sendMessage",
      "outputs": [],
      "stateMutability": "nonpayable",
      "type": "function"
    }
  ],
  "bytecode": "0x608060405234801561001057600080fd5b50611f45806100206000396000f3fe6080604052600436106101095760003560e01c806382afd23b11610095578063b126450511610064578063b126450514610325578063bc2be1be14610345578063c7d0539e14610375578063d289ade2146103a5578063f6e27cc0146103b857600080fd5b806382afd23b146102825780638f9e687b146102b55780639067b677146102d5578063aae8b5921461030557600080fd5b80632eb9d950116100dc5780632eb9d950146101c0578063361e13f4146101e0578063460e204914610210578063637e582014610230578063734c5abe1461025057600080fd5b80630cbe97d01461010e5780630f30748d1461013057806326cc5583146101735780632e842c0a14610193575b600080fd5b34801561011a57600080fd5b5061012e61012936600461168c565b6103d8565b005b34801561013c57600080fd5b5061016061014b3660046116ae565b6000908152602081905260409020600b015490565b6040519081526020015b60405180910390f35b34801561017f57600080fd5b5061012e61018e3660046116ae565b6107d8565b34801561019f57600080fd5b506101b36101ae3660046116ae565b61094b565b60405161016a91906116c7565b3480156101cc57600080fd5b5061012e6101db36600461168c565b6109ac565b3480156101ec57600080fd5b506102006101fb366004611730565b610c24565b604051901515815260200161016a565b34801561021c57600080fd5b506101b361022b3660046116ae565b610c48565b34801561023c57600080fd5b5061016061024b3660046116ae565b610ca0565b34801561025c57600080fd5b5061027061026b36600461176d565b610cb7565b60405160ff909116815260200161016a565b34801561028e57600080fd5b5061020061029d3660046116ae565b6000908152602081905260409020600e015460ff1690565b3480156102c157600080fd5b506101606102d03660046116ae565b610de4565b3480156102e157600080fd5b506101606102f03660046116ae565b60009081526020819052604090206008015490565b34801561031157600080fd5b5061012e610320366004611847565b610e6d565b34801561033157600080fd5b5061016061034036600461188e565b610f9c565b34801561035157600080fd5b506101606103603660046116ae565b60009081526020819052604090206007015490565b34801561038157600080fd5b506101606103903660046116ae565b6000908152602081905260409020600d015490565b61012e6103b33660046116ae565b611095565b3480156103c457600080fd5b5061012e6103d336600461195d565b6111d5565b60008281526020819052604090206001015482906001600160a01b0316331461041c5760405162461bcd60e51b8152600401610413906119f0565b60405180910390fd5b6000838152602081905260409020600e0154839060ff1661044f5760405162461bcd60e51b815260040161041390611a3c565b6000848152602081905260409020600d015483106104a85760405162461bcd60e51b8152602060048201526016602482015275135bdb9cdd195c88191bd95cc81b9bdd08195e1a5cdd60521b6044820152606401610413565b6000848152602081905260408120600d018054859081106104cb576104cb611a6c565b90600052602060002090600302016040518060c00160405290816000820180546104f490611a82565b80601f016020809104026020016040519081016040528092919081815260200182805461052090611a82565b801561056d5780601f106105425761010080835404028352916020019161056d565b820191906000526020600020905b81548152906001019060200180831161055057829003601f168201915b505050918352505060018281015460208084019190915260029093015460ff8082166040808601919091526101008304821660608601526201000083048216608086015263010000009092041660a0909301929092526000898152928390529120600d01549192506105de91611acc565b84146106e4576000858152602081905260409020600d01805461060390600190611acc565b8154811061061357610613611a6c565b9060005260206000209060030201600080878152602001908152602001600020600d01858154811061064757610647611a6c565b60009182526020909120600390910201806106628382611b2e565b50600182810154908201556002918201805492909101805460ff19811660ff948516908117835583546101009081900486160261ffff1990921617178082558254620100009081900485160262ff000019821681178355925463010000009081900490941690930263ff0000001990921663ffff000019909316929092171790555b6000858152602081905260409020600d0180548061070457610704611c0b565b600082815260208120600019909201916003830201906107248282611636565b506000600182018190556002909101805463ffffffff19169055915585815260208190526040902061075c90600a0180546001019055565b6020808201516000878152918290526040909120600b015461077d916113a7565b60008681526020818152604091829020600b0192909255825191830151905187927f4cc888507320bb37bdbca8dc4d665473c8932f590bd394e83cd2d7434f9f0e55926107c992611c71565b60405180910390a25050505050565b60008181526020819052604090206001015481906001600160a01b031633146108135760405162461bcd60e51b8152600401610413906119f0565b6000828152602081905260409020600e0154829060ff166108465760405162461bcd60e51b815260040161041390611a3c565b6000838152602081905260408120600e8101805460ff1916905542600882015561088e90610876906004016113b3565b600086815260208190526040902060060154906113bd565b60008581526020819052604080822060010154905192935090916001600160a01b039091169083908381818185875af1925050503d80600081146108ee576040519150601f19603f3d011682016040523d82523d6000602084013e6108f3565b606091505b50509050806109445760405162461bcd60e51b815260206004820152601e60248201527f5472616e7366657220746f2067616d65206d6173746572206661696c656400006044820152606401610413565b5050505050565b60008181526020819052604090206001015460609082906001600160a01b031633146109895760405162461bcd60e51b8152600401610413906119f0565b60008381526020819052604090206109a3906004016113c9565b91505b50919050565b60008281526020819052604090206001015482906001600160a01b031633146109e75760405162461bcd60e51b8152600401610413906119f0565b6000838152602081905260409020600e0154839060ff16610a1a5760405162461bcd60e51b815260040161041390611a3c565b6000848152602081905260409020600d01548310610a735760405162461bcd60e51b8152602060048201526016602482015275135bdb9cdd195c88191bd95cc81b9bdd08195e1a5cdd60521b6044820152606401610413565b6000848152602081905260409020600d0154610a9190600190611acc565b8314610b97576000848152602081905260409020600d018054610ab690600190611acc565b81548110610ac657610ac6611a6c565b9060005260206000209060030201600080868152602001908152602001600020600d018481548110610afa57610afa611a6c565b6000918252602090912060039091020180610b158382611b2e565b50600182810154908201556002918201805492909101805460ff19811660ff948516908117835583546101009081900486160261ffff1990921617178082558254620100009081900485160262ff000019821681178355925463010000009081900490941690930263ff0000001990921663ffff000019909316929092171790555b6000848152602081905260409020600d01805480610bb757610bb7611c0b565b60008281526020812060001990920191600383020190610bd78282611636565b506000600182018190556002909101805463ffffffff191690559155604051849186917ff422f779d14e3ce8b6936ce63f81cf43900e2c6147db582af2f6d8a4e2c083209190a350505050565b6000828152602081905260408120610c3f90600401836113dd565b90505b92915050565b60008181526020819052604090206001015460609082906001600160a01b03163314610c865760405162461bcd60e51b8152600401610413906119f0565b60008381526020819052604090206109a3906002016113c9565b6000818152602081905260408120600a0154610c42565b60008281526020819052604081208390610cd490600401336113dd565b80610cf857506000818152602081905260409020600101546001600160a01b031633145b610d145760405162461bcd60e51b815260040161041390611c93565b6000848152602081905260409020600e0154849060ff16610d475760405162461bcd60e51b815260040161041390611a3c565b6000610d5660ff861642611cf0565b610d61906001611d12565b6040805133815260ff8316602082015291925087917f47567601135f6dd22dc4fd60d32cb54ba04e665ff40f9e6cc0f732eb3d7b3c71910160405180910390a26000610daf8260ff166113ff565b604051602001610dbf9190611d25565b6040516020818303038152906040529050610dda8782610e6d565b5095945050505050565b600081815260208190526040812060078101546008909101541015610e4b5760405162461bcd60e51b815260206004820152601960248201527f53657373696f6e20686173206e6f742079657420656e646564000000000000006044820152606401610413565b60008281526020819052604090206007810154600890910154610c4291611492565b60008281526020819052604090208290610e8a90600401336113dd565b80610eae57506000818152602081905260409020600101546001600160a01b031633145b610eca5760405162461bcd60e51b815260040161041390611c93565b6000838152602081905260409020600e0154839060ff16610efd5760405162461bcd60e51b815260040161041390611a3c565b60408051808201825233815260208082018681526000888152808352938420600c0180546001808201835591865292909420835160029093020180546001600160a01b0319166001600160a01b03909316929092178255519192839290820190610f679082611d63565b505050847fa758af4732a8088ab75915c760fabb11b22db520c32f4ee5cdc6651c268d3afa33866040516107c9929190611e1b565b600084815260208190526040812060010180546001600160a01b0319166001600160a01b038616179055805b835181101561102457611011848281518110610fe657610fe6611a6c565b602002602001015160008089815260200190815260200160002060020161149e90919063ffffffff16565b508061101c81611e47565b915050610fc8565b506000858152602081815260409182902060068101859055426007820155600e8101805460ff19166001179055879055815187815233918101919091527f6c5e54a4b431f9740a3fe6060098a66514c1429d75fdc49180975faaf8552779910160405180910390a150929392505050565b6000818152602081905260409020600e0154819060ff166110c85760405162461bcd60e51b815260040161041390611a3c565b6000828152602081905260409020600601543410156111205760405162461bcd60e51b8152602060048201526014602482015273125b98dbdc9c9958dd0819995948185b5bdd5b9d60621b6044820152606401610413565b600082815260208190526040902061113b90600401336113dd565b156111885760405162461bcd60e51b815260206004820152601760248201527f506c617965722068617320616c726561647920706169640000000000000000006044820152606401610413565b60008281526020819052604090206111a3906004013361149e565b50604051339083907f87969bc7faf902221a147b95ceba76e011c5efb0339a0a8ee7a2bb82d9cfbbd690600090a35050565b60008781526020819052604090206001015487906001600160a01b031633146112105760405162461bcd60e51b8152600401610413906119f0565b6000888152602081905260409020600e0154889060ff166112435760405162461bcd60e51b815260040161041390611a3c565b600089815260208181526040808320600d018054825160c0810184528d815280850189905260ff808e16948201949094528b841660608201528a8416608082015292891660a0840152848452600181018255908452919092208251919291829160038502019081906112b59082611d63565b5060208201516001820155604080830151600290920180546060850151608086015160a09096015160ff90811663010000000263ff0000001997821662010000029790971663ffff0000199282166101000261ffff1990941691909616179190911716929092179290921790555182908c907f4b52806fab0170f0dbb4325c98665d5c662758165ef3f34b5ea19ccfb45eee2690611356908e908c90611e60565b60405180910390a360008a61136d8960ff166113ff565b60405160200161137e929190611e85565b60405160208183030381529060405290506113998c82610e6d565b505050505050505050505050565b6000610c3f8284611d12565b6000610c42825490565b6000610c3f8284611ef8565b606060006113d6836114b3565b9392505050565b6001600160a01b03811660009081526001830160205260408120541515610c3f565b6060600061140c8361150f565b600101905060008167ffffffffffffffff81111561142c5761142c611790565b6040519080825280601f01601f191660200182016040528015611456576020820181803683370190505b5090508181016020015b600019016f181899199a1a9b1b9c1cb0b131b232b360811b600a86061a8153600a850494508461146057509392505050565b6000610c3f8284611acc565b6000610c3f836001600160a01b0384166115e7565b60608160000180548060200260200160405190810160405280929190818152602001828054801561150357602002820191906000526020600020905b8154815260200190600101908083116114ef575b50505050509050919050565b60008072184f03e93ff9f4daa797ed6e38ed64bf6a1f0160401b831061154e5772184f03e93ff9f4daa797ed6e38ed64bf6a1f0160401b830492506040015b6d04ee2d6d415b85acef8100000000831061157a576d04ee2d6d415b85acef8100000000830492506020015b662386f26fc10000831061159857662386f26fc10000830492506010015b6305f5e10083106115b0576305f5e100830492506008015b61271083106115c457612710830492506004015b606483106115d6576064830492506002015b600a8310610c425760010192915050565b600081815260018301602052604081205461162e57508154600181810184556000848152602080822090930184905584548482528286019093526040902091909155610c42565b506000610c42565b50805461164290611a82565b6000825580601f10611652575050565b601f0160209004906000526020600020908101906116709190611673565b50565b5b808211156116885760008155600101611674565b5090565b6000806040838503121561169f57600080fd5b50508035926020909101359150565b6000602082840312156116c057600080fd5b5035919050565b6020808252825182820181905260009190848201906040850190845b818110156117085783516001600160a01b0316835292840192918401916001016116e3565b50909695505050505050565b80356001600160a01b038116811461172b57600080fd5b919050565b6000806040838503121561174357600080fd5b8235915061175360208401611714565b90509250929050565b803560ff8116811461172b57600080fd5b6000806040838503121561178057600080fd5b823591506117536020840161175c565b634e487b7160e01b600052604160045260246000fd5b604051601f8201601f1916810167ffffffffffffffff811182821017156117cf576117cf611790565b604052919050565b600082601f8301126117e857600080fd5b813567ffffffffffffffff81111561180257611802611790565b611815601f8201601f19166020016117a6565b81815284602083860101111561182a57600080fd5b816020850160208301376000918101602001919091529392505050565b6000806040838503121561185a57600080fd5b82359150602083013567ffffffffffffffff81111561187857600080fd5b611884858286016117d7565b9150509250929050565b600080600080608085870312156118a457600080fd5b8435935060206118b5818701611714565b9350604086013567ffffffffffffffff808211156118d257600080fd5b818801915088601f8301126118e657600080fd5b8135818111156118f8576118f8611790565b8060051b91506119098483016117a6565b818152918301840191848101908b84111561192357600080fd5b938501935b838510156119485761193985611714565b82529385019390850190611928565b989b979a509798606001359750505050505050565b600080600080600080600060e0888a03121561197857600080fd5b87359650602088013567ffffffffffffffff81111561199657600080fd5b6119a28a828b016117d7565b9650506119b16040890161175c565b94506119bf6060890161175c565b93506119cd6080890161175c565b92506119db60a0890161175c565b915060c0880135905092959891949750929550565b6020808252602c908201527f4f6e6c79207468652067616d65206d61737465722063616e20706572666f726d60408201526b103a3434b99030b1ba34b7b760a11b606082015260800190565b60208082526016908201527514d95cdcda5bdb881a185cc81899595b88195b99195960521b604082015260600190565b634e487b7160e01b600052603260045260246000fd5b600181811c90821680611a9657607f821691505b6020821081036109a657634e487b7160e01b600052602260045260246000fd5b634e487b7160e01b600052601160045260246000fd5b81810381811115610c4257610c42611ab6565b601f821115611b2957600081815260208120601f850160051c81016020861015611b065750805b601f850160051c820191505b81811015611b2557828155600101611b12565b5050505b505050565b818103611b39575050565b611b438254611a82565b67ffffffffffffffff811115611b5b57611b5b611790565b611b6f81611b698454611a82565b84611adf565b6000601f821160018114611ba35760008315611b8b5750848201545b600019600385901b1c1916600184901b178455610944565b600085815260209020601f19841690600086815260209020845b83811015611bdd5782860154825560019586019590910190602001611bbd565b5085831015611bfb5781850154600019600388901b60f8161c191681555b5050505050600190811b01905550565b634e487b7160e01b600052603160045260246000fd5b60005b83811015611c3c578181015183820152602001611c24565b50506000910152565b60008151808452611c5d816020860160208601611c21565b601f01601f19169290920160200192915050565b604081526000611c846040830185611c45565b90508260208301529392505050565b6020808252603a908201527f4f6e6c792061637469766520706c6179657273206f722047616d65204d61737460408201527f65722063616e20706572666f726d207468697320616374696f6e000000000000606082015260800190565b600082611d0d57634e487b7160e01b600052601260045260246000fd5b500690565b80820180821115610c4257610c42611ab6565b7502937b63632b21030903234b1b29030b7321033b7ba160551b815260008251611d56816016850160208701611c21565b9190910160160192915050565b815167ffffffffffffffff811115611d7d57611d7d611790565b611d8b81611b698454611a82565b602080601f831160018114611dc05760008415611da85750858301515b600019600386901b1c1916600185901b178555611b25565b600085815260208120601f198616915b82811015611def57888601518255948401946001909101908401611dd0565b5085821015611bfb57939096015160001960f8600387901b161c19169092555050600190811b01905550565b6001600160a01b0383168152604060208201819052600090611e3f90830184611c45565b949350505050565b600060018201611e5957611e59611ab6565b5060010190565b604081526000611e736040830185611c45565b905060ff831660208301529392505050565b7f41646465642061206d6f6e73746572206f662074797065200000000000000000815260008351611ebd816018850160208801611c21565b6e0103bb4ba341039ba3932b733ba341608d1b6018918401918201528351611eec816027840160208801611c21565b01602701949350505050565b8082028115828204841417610c4257610c42611ab656fea26469706673582212204789f2f7bf2cfadcdc63d726bc42c5dcdc05bb2edfe5c78933984f1c2e9d20a064736f6c63430008120033",
  "linkReferences": {},
  "deployedLinkReferences": {}
}