{
  "_format": "hh-sol-artifact-1",
  "contractName": "Team",
  "sourceName": "contracts/Team.sol",
  "abi": [
    {
      "inputs": [
        {
          "internalType": "address",
          "name": "_sessionContractAddress",
          "type": "address"
        },
        {
          "internalType": "address",
          "name": "_certificationContractAddress",
          "type": "address"
        }
      ],
      "stateMutability": "nonpayable",
      "type": "constructor"
    },
    {
      "anonymous": false,
      "inputs": [
        {
          "indexed": false,
          "internalType": "uint256",
          "name": "teamId",
          "type": "uint256"
        }
      ],
      "name": "GamesPlayedIncremented",
      "type": "event"
    },
    {
      "anonymous": false,
      "inputs": [
        {
          "indexed": true,
          "internalType": "address",
          "name": "previousOwner",
          "type": "address"
        },
        {
          "indexed": true,
          "internalType": "address",
          "name": "newOwner",
          "type": "address"
        }
      ],
      "name": "OwnershipTransferred",
      "type": "event"
    },
    {
      "anonymous": false,
      "inputs": [
        {
          "indexed": false,
          "internalType": "uint256",
          "name": "teamId",
          "type": "uint256"
        },
        {
          "indexed": false,
          "internalType": "address",
          "name": "player",
          "type": "address"
        }
      ],
      "name": "PlayerJoinedTeam",
      "type": "event"
    },
    {
      "anonymous": false,
      "inputs": [
        {
          "indexed": false,
          "internalType": "uint256",
          "name": "teamId",
          "type": "uint256"
        },
        {
          "indexed": false,
          "internalType": "address",
          "name": "player",
          "type": "address"
        }
      ],
      "name": "PlayerLeftTeam",
      "type": "event"
    },
    {
      "anonymous": false,
      "inputs": [
        {
          "indexed": false,
          "internalType": "uint256",
          "name": "teamId",
          "type": "uint256"
        },
        {
          "indexed": false,
          "internalType": "address",
          "name": "gm",
          "type": "address"
        }
      ],
      "name": "SessionCreated",
      "type": "event"
    },
    {
      "anonymous": false,
      "inputs": [
        {
          "indexed": false,
          "internalType": "uint256",
          "name": "teamId",
          "type": "uint256"
        },
        {
          "indexed": false,
          "internalType": "address",
          "name": "gm",
          "type": "address"
        }
      ],
      "name": "SessionEnd",
      "type": "event"
    },
    {
      "anonymous": false,
      "inputs": [
        {
          "indexed": false,
          "internalType": "uint256",
          "name": "teamId",
          "type": "uint256"
        },
        {
          "indexed": false,
          "internalType": "address",
          "name": "gm",
          "type": "address"
        }
      ],
      "name": "TeamCreated",
      "type": "event"
    },
    {
      "anonymous": false,
      "inputs": [
        {
          "indexed": false,
          "internalType": "uint256",
          "name": "teamId",
          "type": "uint256"
        }
      ],
      "name": "TeamDeleted",
      "type": "event"
    },
    {
      "inputs": [],
      "name": "MAX_PLAYERS_PER_TEAM",
      "outputs": [
        {
          "internalType": "uint256",
          "name": "",
          "type": "uint256"
        }
      ],
      "stateMutability": "view",
      "type": "function"
    },
    {
      "inputs": [],
      "name": "MAX_TEAM_PER_GM",
      "outputs": [
        {
          "internalType": "uint256",
          "name": "",
          "type": "uint256"
        }
      ],
      "stateMutability": "view",
      "type": "function"
    },
    {
      "inputs": [],
      "name": "certificationContract",
      "outputs": [
        {
          "internalType": "contract Certification",
          "name": "",
          "type": "address"
        }
      ],
      "stateMutability": "view",
      "type": "function"
    },
    {
      "inputs": [
        {
          "internalType": "uint256",
          "name": "teamId",
          "type": "uint256"
        },
        {
          "internalType": "uint256",
          "name": "amount",
          "type": "uint256"
        }
      ],
      "name": "createSession",
      "outputs": [],
      "stateMutability": "nonpayable",
      "type": "function"
    },
    {
      "inputs": [
        {
          "internalType": "string",
          "name": "_name",
          "type": "string"
        },
        {
          "internalType": "string",
          "name": "image",
          "type": "string"
        },
        {
          "internalType": "string",
          "name": "_desc",
          "type": "string"
        }
      ],
      "name": "createTeam",
      "outputs": [
        {
          "internalType": "uint256",
          "name": "",
          "type": "uint256"
        }
      ],
      "stateMutability": "nonpayable",
      "type": "function"
    },
    {
      "inputs": [
        {
          "internalType": "uint256",
          "name": "teamId",
          "type": "uint256"
        }
      ],
      "name": "deleteTeam",
      "outputs": [],
      "stateMutability": "nonpayable",
      "type": "function"
    },
    {
      "inputs": [
        {
          "internalType": "uint256",
          "name": "teamId",
          "type": "uint256"
        }
      ],
      "name": "endSession",
      "outputs": [],
      "stateMutability": "nonpayable",
      "type": "function"
    },
    {
      "inputs": [
        {
          "internalType": "uint256",
          "name": "teamId",
          "type": "uint256"
        }
      ],
      "name": "getTeam",
      "outputs": [
        {
          "components": [
            {
              "internalType": "address",
              "name": "gm",
              "type": "address"
            },
            {
              "internalType": "uint256",
              "name": "teamId",
              "type": "uint256"
            },
            {
              "internalType": "address[]",
              "name": "players",
              "type": "address[]"
            },
            {
              "internalType": "string",
              "name": "name",
              "type": "string"
            },
            {
              "internalType": "string",
              "name": "imageURI",
              "type": "string"
            },
            {
              "internalType": "string",
              "name": "description",
              "type": "string"
            },
            {
              "internalType": "bool",
              "name": "isActive",
              "type": "bool"
            },
            {
              "internalType": "bool",
              "name": "sessionExists",
              "type": "bool"
            },
            {
              "internalType": "uint256",
              "name": "sessionId",
              "type": "uint256"
            }
          ],
          "internalType": "struct Team.Group",
          "name": "",
          "type": "tuple"
        }
      ],
      "stateMutability": "view",
      "type": "function"
    },
    {
      "inputs": [
        {
          "internalType": "address",
          "name": "gm",
          "type": "address"
        }
      ],
      "name": "getTeamsOfGM",
      "outputs": [
        {
          "internalType": "uint256[]",
          "name": "",
          "type": "uint256[]"
        }
      ],
      "stateMutability": "view",
      "type": "function"
    },
    {
      "inputs": [
        {
          "internalType": "address",
          "name": "playerAddress",
          "type": "address"
        }
      ],
      "name": "getTeamsOfPlayer",
      "outputs": [
        {
          "internalType": "uint256",
          "name": "",
          "type": "uint256"
        }
      ],
      "stateMutability": "view",
      "type": "function"
    },
    {
      "inputs": [
        {
          "internalType": "uint256",
          "name": "teamId",
          "type": "uint256"
        }
      ],
      "name": "isSessionActive",
      "outputs": [
        {
          "internalType": "bool",
          "name": "",
          "type": "bool"
        }
      ],
      "stateMutability": "view",
      "type": "function"
    },
    {
      "inputs": [
        {
          "internalType": "uint256",
          "name": "teamId",
          "type": "uint256"
        }
      ],
      "name": "joinTeam",
      "outputs": [
        {
          "internalType": "uint256",
          "name": "",
          "type": "uint256"
        }
      ],
      "stateMutability": "nonpayable",
      "type": "function"
    },
    {
      "inputs": [
        {
          "internalType": "uint256",
          "name": "teamId",
          "type": "uint256"
        }
      ],
      "name": "leaveTeam",
      "outputs": [],
      "stateMutability": "nonpayable",
      "type": "function"
    },
    {
      "inputs": [],
      "name": "owner",
      "outputs": [
        {
          "internalType": "address",
          "name": "",
          "type": "address"
        }
      ],
      "stateMutability": "view",
      "type": "function"
    },
    {
      "inputs": [
        {
          "internalType": "uint256",
          "name": "teamId",
          "type": "uint256"
        }
      ],
      "name": "payFee",
      "outputs": [],
      "stateMutability": "payable",
      "type": "function"
    },
    {
      "inputs": [],
      "name": "renounceOwnership",
      "outputs": [],
      "stateMutability": "nonpayable",
      "type": "function"
    },
    {
      "inputs": [
        {
          "internalType": "uint256",
          "name": "teamId",
          "type": "uint256"
        },
        {
          "internalType": "uint8",
          "name": "diceSides",
          "type": "uint8"
        }
      ],
      "name": "rollDice",
      "outputs": [
        {
          "internalType": "uint8",
          "name": "",
          "type": "uint8"
        }
      ],
      "stateMutability": "nonpayable",
      "type": "function"
    },
    {
      "inputs": [
        {
          "internalType": "uint256",
          "name": "teamId",
          "type": "uint256"
        },
        {
          "internalType": "string",
          "name": "message",
          "type": "string"
        }
      ],
      "name": "sendMessage",
      "outputs": [],
      "stateMutability": "nonpayable",
      "type": "function"
    },
    {
      "inputs": [],
      "name": "sessionContract",
      "outputs": [
        {
          "internalType": "contract Session",
          "name": "",
          "type": "address"
        }
      ],
      "stateMutability": "view",
      "type": "function"
    },
    {
      "inputs": [
        {
          "internalType": "address",
          "name": "",
          "type": "address"
        },
        {
          "internalType": "uint256",
          "name": "",
          "type": "uint256"
        }
      ],
      "name": "teamsByGM",
      "outputs": [
        {
          "internalType": "uint256",
          "name": "",
          "type": "uint256"
        }
      ],
      "stateMutability": "view",
      "type": "function"
    },
    {
      "inputs": [
        {
          "internalType": "address",
          "name": "",
          "type": "address"
        }
      ],
      "name": "teamsByPlayer",
      "outputs": [
        {
          "internalType": "uint256",
          "name": "",
          "type": "uint256"
        }
      ],
      "stateMutability": "view",
      "type": "function"
    },
    {
      "inputs": [
        {
          "internalType": "address",
          "name": "newOwner",
          "type": "address"
        }
      ],
      "name": "transferOwnership",
      "outputs": [],
      "stateMutability": "nonpayable",
      "type": "function"
    }
  ],
  "bytecode": "0x60806040523480156200001157600080fd5b5060405162002737380380620027378339810160408190526200003491620000de565b6200003f3362000071565b600580546001600160a01b039384166001600160a01b0319918216179091556004805492909316911617905562000116565b600080546001600160a01b038381166001600160a01b0319831681178455604051919092169283917f8be0079c531659141344cd1fd0a4f28419497f9722a3daafe3b4186f6b6457e09190a35050565b80516001600160a01b0381168114620000d957600080fd5b919050565b60008060408385031215620000f257600080fd5b620000fd83620000c1565b91506200010d60208401620000c1565b90509250929050565b61261180620001266000396000f3fe6080604052600436106101345760003560e01c80637b00b257116100ab578063a6d861a71161006f578063a6d861a7146103a6578063a889e9a9146103c6578063aae8b592146103e6578063d289ade214610406578063ea842e6514610419578063f2fde38b1461043957600080fd5b80637b00b257146103065780638da5cb5b146103265780638f50a1a114610344578063a2df7fde14610359578063a58779ed1461038657600080fd5b80633334b7f4116100fd5780633334b7f41461020c57806339fd33a2146102425780633e87d3ba1461027a5780634f27c78e146102aa578063715018a6146102bf578063734c5abe146102d457600080fd5b80628e0f1b146101395780630926e6a21461016f5780631d1433051461019d578063204241cb146101ca57806326cc5583146101ec575b600080fd5b34801561014557600080fd5b50610159610154366004611e52565b610459565b6040516101669190611eff565b60405180910390f35b34801561017b57600080fd5b5061018f61018a366004611e52565b610740565b604051908152602001610166565b3480156101a957600080fd5b506101bd6101b8366004611ff3565b6108e3565b6040516101669190612015565b3480156101d657600080fd5b506101ea6101e5366004611e52565b61094f565b005b3480156101f857600080fd5b506101ea610207366004611e52565b610c21565b34801561021857600080fd5b5061018f610227366004611ff3565b6001600160a01b031660009081526002602052604090205490565b34801561024e57600080fd5b50600454610262906001600160a01b031681565b6040516001600160a01b039091168152602001610166565b34801561028657600080fd5b5061029a610295366004611e52565b610fd1565b6040519015158152602001610166565b3480156102b657600080fd5b5061018f600781565b3480156102cb57600080fd5b506101ea611008565b3480156102e057600080fd5b506102f46102ef366004612068565b61101c565b60405160ff9091168152602001610166565b34801561031257600080fd5b506101ea610321366004612098565b6111a4565b34801561033257600080fd5b506000546001600160a01b0316610262565b34801561035057600080fd5b5061018f600a81565b34801561036557600080fd5b5061018f610374366004611ff3565b60026020526000908152604090205481565b34801561039257600080fd5b5061018f6103a13660046120ba565b61149d565b3480156103b257600080fd5b50600554610262906001600160a01b031681565b3480156103d257600080fd5b5061018f6103e1366004612187565b6114ce565b3480156103f257600080fd5b506101ea61040136600461220f565b6116fc565b6101ea610414366004611e52565b61186b565b34801561042557600080fd5b506101ea610434366004611e52565b6119b6565b34801561044557600080fd5b506101ea610454366004611ff3565b611af0565b610461611d7f565b816001818154811061047557610475612256565b600091825260209091206006600890920201015460ff166104b15760405162461bcd60e51b81526004016104a89061226c565b60405180910390fd5b600183815481106104c4576104c4612256565b60009182526020918290206040805161012081018252600890930290910180546001600160a01b03168352600181015483850152600281018054835181870281018701855281815294959294938601939283018282801561054e57602002820191906000526020600020905b81546001600160a01b03168152600190910190602001808311610530575b50505050508152602001600382018054610567906122b0565b80601f0160208091040260200160405190810160405280929190818152602001828054610593906122b0565b80156105e05780601f106105b5576101008083540402835291602001916105e0565b820191906000526020600020905b8154815290600101906020018083116105c357829003601f168201915b505050505081526020016004820180546105f9906122b0565b80601f0160208091040260200160405190810160405280929190818152602001828054610625906122b0565b80156106725780601f1061064757610100808354040283529160200191610672565b820191906000526020600020905b81548152906001019060200180831161065557829003601f168201915b5050505050815260200160058201805461068b906122b0565b80601f01602080910402602001604051908101604052809291908181526020018280546106b7906122b0565b80156107045780601f106106d957610100808354040283529160200191610704565b820191906000526020600020905b8154815290600101906020018083116106e757829003601f168201915b5050509183525050600682015460ff80821615156020840152610100909104161515604082015260079091015460609091015291505b50919050565b6000816001818154811061075657610756612256565b600091825260209091206006600890920201015460ff166107895760405162461bcd60e51b81526004016104a89061226c565b60076001848154811061079e5761079e612256565b906000526020600020906008020160020180549050106107ef5760405162461bcd60e51b815260206004820152600c60248201526b1519585b481a5cc8199d5b1b60a21b60448201526064016104a8565b336000908152600260205260409020541561084c5760405162461bcd60e51b815260206004820152601b60248201527f506c6179657220616c726561647920696e2074686973207465616d000000000060448201526064016104a8565b6001838154811061085f5761085f612256565b60009182526020808320600260089390930201820180546001810182559084528184200180546001600160a01b031916339081179091558084529181526040928390208690558251868152908101919091527fb29b57413160b0083e91ebf1cd4f03c7e5656ed87a7162fc39e67b0c4dbeee2e910160405180910390a15090919050565b6001600160a01b03811660009081526003602090815260409182902080548351818402810184019094528084526060939283018282801561094357602002820191906000526020600020905b81548152602001906001019080831161092f575b50505050509050919050565b806001818154811061096357610963612256565b600091825260209091206006600890920201015460ff166109965760405162461bcd60e51b81526004016104a89061226c565b3360009081526002602052604090205482146109f45760405162461bcd60e51b815260206004820152601760248201527f506c61796572206e6f7420696e2074686973207465616d00000000000000000060448201526064016104a8565b6000805b60018481548110610a0b57610a0b612256565b906000526020600020906008020160020180549050811015610a9a57336001600160a01b031660018581548110610a4457610a44612256565b90600052602060002090600802016002018281548110610a6657610a66612256565b6000918252602090912001546001600160a01b031603610a8857809150610a9a565b80610a92816122fa565b9150506109f8565b5060018381548110610aae57610aae612256565b90600052602060002090600802016002016001808581548110610ad357610ad3612256565b906000526020600020906008020160020180549050610af29190612313565b81548110610b0257610b02612256565b600091825260209091200154600180546001600160a01b039092169185908110610b2e57610b2e612256565b90600052602060002090600802016002018281548110610b5057610b50612256565b9060005260206000200160006101000a8154816001600160a01b0302191690836001600160a01b0316021790555060018381548110610b9157610b91612256565b9060005260206000209060080201600201805480610bb157610bb1612326565b60008281526020808220600019908401810180546001600160a01b031916905590920190925533808352600282526040808420939093558251868152918201527f83b0f5f3265a58fee4ea1a4eb5bde84b52f05fa5f3ff27f97157d2c9f20b6e4d910160405180910390a1505050565b8060018181548110610c3557610c35612256565b600091825260209091206006600890920201015460ff16610c685760405162461bcd60e51b81526004016104a89061226c565b81336001600160a01b031660018281548110610c8657610c86612256565b60009182526020909120600890910201546001600160a01b03161480610cba57503360009081526002602052604090205481145b610cd65760405162461bcd60e51b81526004016104a89061233c565b8260018181548110610cea57610cea612256565b906000526020600020906008020160060160019054906101000a900460ff16610d255760405162461bcd60e51b81526004016104a890612385565b600554604051602481018690526000916001600160a01b03169060440160408051601f198184030181529181526020820180516001600160e01b031663388de8ff60e21b17905251610d7791906123b5565b6000604051808303816000865af19150503d8060008114610db4576040519150601f19603f3d011682016040523d82523d6000602084013e610db9565b606091505b5050905080610dff5760405162461bcd60e51b815260206004820152601260248201527114d95cdcda5bdb88195b990819985a5b195960721b60448201526064016104a8565b60005b60018681548110610e1557610e15612256565b906000526020600020906008020160020180549050811015610f1757600060018781548110610e4657610e46612256565b90600052602060002090600802016002018281548110610e6857610e68612256565b60009182526020822001546001600160a01b031691503090610e8942611b69565b60048054604051632b3e93bb60e11b81529293506001600160a01b03169163567d277691610ebd91879187918791016123d1565b6020604051808303816000875af1158015610edc573d6000803e3d6000fd5b505050506040513d601f19601f82011682018060405250810190610f009190612406565b505050508080610f0f906122fa565b915050610e02565b50600060018681548110610f2d57610f2d612256565b906000526020600020906008020160070181905550600060018681548110610f5757610f57612256565b906000526020600020906008020160060160016101000a81548160ff0219169083151502179055507ff21961a719e143712f53eed4f531f7e42777578a6ae1fa3f60baf3d84da2ea598533604051610fc29291909182526001600160a01b0316602082015260400190565b60405180910390a15050505050565b600060018281548110610fe657610fe6612256565b6000918252602090912060089091020160060154610100900460ff1692915050565b611010611bfc565b61101a6000611c56565b565b6000826001818154811061103257611032612256565b600091825260209091206006600890920201015460ff166110655760405162461bcd60e51b81526004016104a89061226c565b83336001600160a01b03166001828154811061108357611083612256565b60009182526020909120600890910201546001600160a01b031614806110b757503360009081526002602052604090205481145b6110d35760405162461bcd60e51b81526004016104a89061233c565b84600181815481106110e7576110e7612256565b906000526020600020906008020160060160019054906101000a900460ff166111225760405162461bcd60e51b81526004016104a890612385565b6005546040516339a62d5f60e11b81526004810188905260ff871660248201526001600160a01b039091169063734c5abe906044016020604051808303816000875af1158015611176573d6000803e3d6000fd5b505050506040513d601f19601f8201168201806040525081019061119a919061241f565b9695505050505050565b81600181815481106111b8576111b8612256565b600091825260209091206006600890920201015460ff166111eb5760405162461bcd60e51b81526004016104a89061226c565b82336001600160a01b03166001828154811061120957611209612256565b60009182526020909120600890910201546001600160a01b0316148061123d57503360009081526002602052604090205481145b6112595760405162461bcd60e51b81526004016104a89061233c565b6001848154811061126c5761126c612256565b906000526020600020906008020160060160019054906101000a900460ff16156112d15760405162461bcd60e51b815260206004820152601660248201527553657373696f6e20616c72656164792065786973747360501b60448201526064016104a8565b600083116113215760405162461bcd60e51b815260206004820152601d60248201527f416d6f756e74206d7573742062652067726561746572207468616e203000000060448201526064016104a8565b600554600180546000926001600160a01b03169163b1264505918891908290811061134e5761134e612256565b6000918252602090912060089091020154600180546001600160a01b03909216918a90811061137f5761137f612256565b9060005260206000209060080201600201886040518563ffffffff1660e01b81526004016113b0949392919061243c565b6020604051808303816000875af11580156113cf573d6000803e3d6000fd5b505050506040513d601f19601f820116820180604052508101906113f39190612406565b9050806001868154811061140957611409612256565b906000526020600020906008020160070181905550600180868154811061143257611432612256565b906000526020600020906008020160060160016101000a81548160ff0219169083151502179055507f6c5e54a4b431f9740a3fe6060098a66514c1429d75fdc49180975faaf85527798533604051610fc29291909182526001600160a01b0316602082015260400190565b600360205281600052604060002081815481106114b957600080fd5b90600052602060002001600091509150505481565b33600090815260036020526040812054600a116115255760405162461bcd60e51b8152602060048201526015602482015274474d2068617320746f6f206d616e79207465616d7360581b60448201526064016104a8565b61152d611d7f565b338152606081018590526080810184905260a0810183905260018054602080840182815260c08501849052600060e0860181905283850185559390935283517fb10e2d527612073b26eecdfd717e6a320cf44b4afac2b0732d9fcbe2b7fa0cf6600890930292830180546001600160a01b0319166001600160a01b0390921691909117815592517fb10e2d527612073b26eecdfd717e6a320cf44b4afac2b0732d9fcbe2b7fa0cf783015560408401518051859493611612937fb10e2d527612073b26eecdfd717e6a320cf44b4afac2b0732d9fcbe2b7fa0cf8909101920190611dd8565b506060820151600382019061162790826124fa565b506080820151600482019061163c90826124fa565b5060a0820151600582019061165190826124fa565b5060c082015160068201805460e085015161ffff1990911692151561ff0019169290921761010092151583021790559091015160079091015533600081815260036020908152604080832085830180518254600181018455928652948490209091019390935591518251908152908101929092527f1c483dd823f07c903e6b78f350b4077cc066d97e34e20f9787befd74c5517663910160405180910390a160200151949350505050565b816001818154811061171057611710612256565b600091825260209091206006600890920201015460ff166117435760405162461bcd60e51b81526004016104a89061226c565b82336001600160a01b03166001828154811061176157611761612256565b60009182526020909120600890910201546001600160a01b0316148061179557503360009081526002602052604090205481145b6117b15760405162461bcd60e51b81526004016104a89061233c565b83600181815481106117c5576117c5612256565b906000526020600020906008020160060160019054906101000a900460ff166118005760405162461bcd60e51b81526004016104a890612385565b6005546040516355745ac960e11b81526001600160a01b039091169063aae8b5929061183290889088906004016125ba565b600060405180830381600087803b15801561184c57600080fd5b505af1158015611860573d6000803e3d6000fd5b505050505050505050565b806001818154811061187f5761187f612256565b600091825260209091206006600890920201015460ff166118b25760405162461bcd60e51b81526004016104a89061226c565b81336001600160a01b0316600182815481106118d0576118d0612256565b60009182526020909120600890910201546001600160a01b0316148061190457503360009081526002602052604090205481145b6119205760405162461bcd60e51b81526004016104a89061233c565b826001818154811061193457611934612256565b906000526020600020906008020160060160019054906101000a900460ff1661196f5760405162461bcd60e51b81526004016104a890612385565b600554604051636944d6f160e11b8152600481018690526001600160a01b039091169063d289ade29034906024016000604051808303818588803b15801561184c57600080fd5b80600181815481106119ca576119ca612256565b600091825260209091206006600890920201015460ff166119fd5760405162461bcd60e51b81526004016104a89061226c565b336001600160a01b031660018381548110611a1a57611a1a612256565b60009182526020909120600890910201546001600160a01b031614611a815760405162461bcd60e51b815260206004820152601b60248201527f4f6e6c7920474d2063616e2064656c65746520746865207465616d000000000060448201526064016104a8565b600060018381548110611a9657611a96612256565b600091825260209182902060089190910201600601805460ff1916921515929092179091556040518381527f56443b6a7411828f03707cc1316271d2c7daaddc5ce83a328d01b82333bb2929910160405180910390a15050565b611af8611bfc565b6001600160a01b038116611b5d5760405162461bcd60e51b815260206004820152602660248201527f4f776e61626c653a206e6577206f776e657220697320746865207a65726f206160448201526564647265737360d01b60648201526084016104a8565b611b6681611c56565b50565b60606000611b7683611ca6565b600101905060008167ffffffffffffffff811115611b9657611b966120e4565b6040519080825280601f01601f191660200182016040528015611bc0576020820181803683370190505b5090508181016020015b600019016f181899199a1a9b1b9c1cb0b131b232b360811b600a86061a8153600a8504945084611bca57509392505050565b6000546001600160a01b0316331461101a5760405162461bcd60e51b815260206004820181905260248201527f4f776e61626c653a2063616c6c6572206973206e6f7420746865206f776e657260448201526064016104a8565b600080546001600160a01b038381166001600160a01b0319831681178455604051919092169283917f8be0079c531659141344cd1fd0a4f28419497f9722a3daafe3b4186f6b6457e09190a35050565b60008072184f03e93ff9f4daa797ed6e38ed64bf6a1f0160401b8310611ce55772184f03e93ff9f4daa797ed6e38ed64bf6a1f0160401b830492506040015b6d04ee2d6d415b85acef81000000008310611d11576d04ee2d6d415b85acef8100000000830492506020015b662386f26fc100008310611d2f57662386f26fc10000830492506010015b6305f5e1008310611d47576305f5e100830492506008015b6127108310611d5b57612710830492506004015b60648310611d6d576064830492506002015b600a8310611d79576001015b92915050565b60405180610120016040528060006001600160a01b031681526020016000815260200160608152602001606081526020016060815260200160608152602001600015158152602001600015158152602001600081525090565b828054828255906000526020600020908101928215611e2d579160200282015b82811115611e2d57825182546001600160a01b0319166001600160a01b03909116178255602090920191600190910190611df8565b50611e39929150611e3d565b5090565b5b80821115611e395760008155600101611e3e565b600060208284031215611e6457600080fd5b5035919050565b600081518084526020808501945080840160005b83811015611ea45781516001600160a01b031687529582019590820190600101611e7f565b509495945050505050565b60005b83811015611eca578181015183820152602001611eb2565b50506000910152565b60008151808452611eeb816020860160208601611eaf565b601f01601f19169290920160200192915050565b60208152611f196020820183516001600160a01b03169052565b6020820151604082015260006040830151610120806060850152611f41610140850183611e6b565b91506060850151601f1980868503016080870152611f5f8483611ed3565b935060808701519150808685030160a0870152611f7c8483611ed3565b935060a08701519150808685030160c087015250611f9a8382611ed3565b92505060c0850151611fb060e086018215159052565b5060e0850151610100611fc68187018315159052565b959095015193019290925250919050565b80356001600160a01b0381168114611fee57600080fd5b919050565b60006020828403121561200557600080fd5b61200e82611fd7565b9392505050565b6020808252825182820181905260009190848201906040850190845b8181101561204d57835183529284019291840191600101612031565b50909695505050505050565b60ff81168114611b6657600080fd5b6000806040838503121561207b57600080fd5b82359150602083013561208d81612059565b809150509250929050565b600080604083850312156120ab57600080fd5b50508035926020909101359150565b600080604083850312156120cd57600080fd5b6120d683611fd7565b946020939093013593505050565b634e487b7160e01b600052604160045260246000fd5b600082601f83011261210b57600080fd5b813567ffffffffffffffff80821115612126576121266120e4565b604051601f8301601f19908116603f0116810190828211818310171561214e5761214e6120e4565b8160405283815286602085880101111561216757600080fd5b836020870160208301376000602085830101528094505050505092915050565b60008060006060848603121561219c57600080fd5b833567ffffffffffffffff808211156121b457600080fd5b6121c0878388016120fa565b945060208601359150808211156121d657600080fd5b6121e2878388016120fa565b935060408601359150808211156121f857600080fd5b50612205868287016120fa565b9150509250925092565b6000806040838503121561222257600080fd5b82359150602083013567ffffffffffffffff81111561224057600080fd5b61224c858286016120fa565b9150509250929050565b634e487b7160e01b600052603260045260246000fd5b60208082526024908201527f5465616d20646f6573206e6f74206578697374206f72206973206e6f742061636040820152637469766560e01b606082015260800190565b600181811c908216806122c457607f821691505b60208210810361073a57634e487b7160e01b600052602260045260246000fd5b634e487b7160e01b600052601160045260246000fd5b60006001820161230c5761230c6122e4565b5060010190565b81810381811115611d7957611d796122e4565b634e487b7160e01b600052603160045260246000fd5b60208082526029908201527f4f6e6c79207465616d206d656d626572732063616e20706572666f726d20746860408201526834b99030b1ba34b7b760b91b606082015260800190565b60208082526016908201527514d95cdcda5bdb88191bd95cc81b9bdd08195e1a5cdd60521b604082015260600190565b600082516123c7818460208701611eaf565b9190910192915050565b6001600160a01b038481168252831660208201526060604082018190526000906123fd90830184611ed3565b95945050505050565b60006020828403121561241857600080fd5b5051919050565b60006020828403121561243157600080fd5b815161200e81612059565b600060808201868352602060018060a01b03808816828601526080604086015282875480855260a0870191508860005283600020945060005b81811015612493578554841683526001958601959285019201612475565b50508094505050505082606083015295945050505050565b601f8211156124f557600081815260208120601f850160051c810160208610156124d25750805b601f850160051c820191505b818110156124f1578281556001016124de565b5050505b505050565b815167ffffffffffffffff811115612514576125146120e4565b6125288161252284546122b0565b846124ab565b602080601f83116001811461255d57600084156125455750858301515b600019600386901b1c1916600185901b1785556124f1565b600085815260208120601f198616915b8281101561258c5788860151825594840194600190910190840161256d565b50858210156125aa5787850151600019600388901b60f8161c191681555b5050505050600190811b01905550565b8281526040602082015260006125d36040830184611ed3565b94935050505056fea26469706673582212200bd2a8dc7525a7140c63b0152e13a8038b82f04b48bfa7d3d7709c9d209627bd64736f6c63430008120033",
  "linkReferences": {},
  "deployedLinkReferences": {}
}